{
  "_format": "hh-sol-artifact-1",
  "contractName": "Marketplace",
  "sourceName": "contracts/Marketplace.sol",
  "abi": [
    {
      "inputs": [
        {
          "internalType": "uint256",
          "name": "_feePercent",
          "type": "uint256"
        }
      ],
      "stateMutability": "nonpayable",
      "type": "constructor"
    },
    {
      "anonymous": false,
      "inputs": [
        {
          "indexed": false,
          "internalType": "uint256",
          "name": "itemId",
          "type": "uint256"
        },
        {
          "indexed": true,
          "internalType": "string",
          "name": "category",
          "type": "string"
        },
        {
          "indexed": false,
          "internalType": "uint256",
          "name": "tokenId",
          "type": "uint256"
        },
        {
          "indexed": false,
          "internalType": "address",
          "name": "nftCollection",
          "type": "address"
        },
        {
          "indexed": false,
          "internalType": "uint256",
          "name": "price",
          "type": "uint256"
        },
        {
          "indexed": true,
          "internalType": "address",
          "name": "creator",
          "type": "address"
        },
        {
          "indexed": true,
          "internalType": "address",
          "name": "buyer",
          "type": "address"
        }
      ],
      "name": "Bought",
      "type": "event"
    },
    {
      "inputs": [],
      "name": "feeAccount",
      "outputs": [
        {
          "internalType": "address payable",
          "name": "",
          "type": "address"
        }
      ],
      "stateMutability": "view",
      "type": "function"
    },
    {
      "inputs": [],
      "name": "feePercent",
      "outputs": [
        {
          "internalType": "uint256",
          "name": "",
          "type": "uint256"
        }
      ],
      "stateMutability": "view",
      "type": "function"
    },
    {
      "inputs": [
        {
          "internalType": "uint256",
          "name": "_itemId",
          "type": "uint256"
        }
      ],
      "name": "getTotalPrice",
      "outputs": [
        {
          "internalType": "uint256",
          "name": "",
          "type": "uint256"
        }
      ],
      "stateMutability": "view",
      "type": "function"
    },
    {
      "inputs": [],
      "name": "itemCount",
      "outputs": [
        {
          "internalType": "uint256",
          "name": "",
          "type": "uint256"
        }
      ],
      "stateMutability": "view",
      "type": "function"
    },
    {
      "inputs": [
        {
          "internalType": "uint256",
          "name": "",
          "type": "uint256"
        }
      ],
      "name": "items",
      "outputs": [
        {
          "internalType": "uint256",
          "name": "itemId",
          "type": "uint256"
        },
        {
          "internalType": "address",
          "name": "nftCollection",
          "type": "address"
        },
        {
          "internalType": "uint256",
          "name": "tokenId",
          "type": "uint256"
        },
        {
          "internalType": "uint256",
          "name": "price",
          "type": "uint256"
        },
        {
          "internalType": "address payable",
          "name": "buyer",
          "type": "address"
        },
        {
          "internalType": "bool",
          "name": "sold",
          "type": "bool"
        },
        {
          "internalType": "string",
          "name": "category",
          "type": "string"
        }
      ],
      "stateMutability": "view",
      "type": "function"
    },
    {
      "inputs": [
        {
          "components": [
            {
              "internalType": "uint256",
              "name": "tokenID",
              "type": "uint256"
            },
            {
              "internalType": "uint256",
              "name": "price",
              "type": "uint256"
            },
            {
              "internalType": "string",
              "name": "uri",
              "type": "string"
            },
            {
              "internalType": "address",
              "name": "creator",
              "type": "address"
            },
            {
              "internalType": "string",
              "name": "category",
              "type": "string"
            },
            {
              "internalType": "address",
              "name": "collection",
              "type": "address"
            },
            {
              "internalType": "uint256",
              "name": "royality",
              "type": "uint256"
            }
          ],
          "internalType": "struct Marketplace.SignedNFTData",
          "name": "nft",
          "type": "tuple"
        },
        {
          "internalType": "bytes",
          "name": "signature",
          "type": "bytes"
        }
      ],
      "name": "lazyMintNFT",
      "outputs": [
        {
          "internalType": "uint256",
          "name": "",
          "type": "uint256"
        }
      ],
      "stateMutability": "payable",
      "type": "function"
    },
    {
      "inputs": [
        {
          "components": [
            {
              "internalType": "uint256",
              "name": "tokenID",
              "type": "uint256"
            },
            {
              "internalType": "uint256",
              "name": "price",
              "type": "uint256"
            },
            {
              "internalType": "string",
              "name": "uri",
              "type": "string"
            },
            {
              "internalType": "address",
              "name": "creator",
              "type": "address"
            },
            {
              "internalType": "string",
              "name": "category",
              "type": "string"
            },
            {
              "internalType": "address",
              "name": "collection",
              "type": "address"
            },
            {
              "internalType": "uint256",
              "name": "royality",
              "type": "uint256"
            },
            {
              "internalType": "address",
              "name": "owner",
              "type": "address"
            }
          ],
          "internalType": "struct Marketplace.MintData",
          "name": "nft",
          "type": "tuple"
        },
        {
          "internalType": "bytes",
          "name": "signature",
          "type": "bytes"
        }
      ],
      "name": "mintNFT",
      "outputs": [
        {
          "internalType": "uint256",
          "name": "",
          "type": "uint256"
        }
      ],
      "stateMutability": "payable",
      "type": "function"
    }
  ],
  "bytecode": "0x6101806040523480156200001257600080fd5b506040516200246f3803806200246f8339818101604052810190620000389190620001fc565b6040518060400160405280601081526020017f4c617a79204d61726b6574706c616365000000000000000000000000000000008152506040518060400160405280600381526020017f312e300000000000000000000000000000000000000000000000000000000000815250600160008190555060008280519060200120905060008280519060200120905060007f8b73c3c69bb8fe3d512ecc4cf759cc79239f7b179b0ffacaa9a75d522b39400f90508260e081815250508161010081815250504660a0818152505062000115818484620001a960201b60201c565b608081815250503073ffffffffffffffffffffffffffffffffffffffff1660c08173ffffffffffffffffffffffffffffffffffffffff1660601b8152505080610120818152505050505050503373ffffffffffffffffffffffffffffffffffffffff166101408173ffffffffffffffffffffffffffffffffffffffff1660601b815250508061016081815250505062000325565b60008383834630604051602001620001c695949392919062000261565b6040516020818303038152906040528051906020012090509392505050565b600081519050620001f6816200030b565b92915050565b60006020828403121562000215576200021462000306565b5b60006200022584828501620001e5565b91505092915050565b6200023981620002be565b82525050565b6200024a81620002d2565b82525050565b6200025b81620002fc565b82525050565b600060a0820190506200027860008301886200023f565b6200028760208301876200023f565b6200029660408301866200023f565b620002a5606083018562000250565b620002b460808301846200022e565b9695505050505050565b6000620002cb82620002dc565b9050919050565b6000819050919050565b600073ffffffffffffffffffffffffffffffffffffffff82169050919050565b6000819050919050565b600080fd5b6200031681620002fc565b81146200032257600080fd5b50565b60805160a05160c05160601c60e05161010051610120516101405160601c610160516120bb620003b460003960008181610202015281816103410152818161060701526108ca0152600081816101d8015281816105cb015261088e01526000610e9c01526000610ede01526000610ebd01526000610df201526000610e4801526000610e7101526120bb6000f3fe6080604052600436106100705760003560e01c8063bfb231d21161004e578063bfb231d2146100f6578063ca7dd37514610139578063d7293a1114610176578063db77ede7146101a657610070565b806365e17c9d146100755780636bfb0d01146100a05780637fd6f15c146100cb575b600080fd5b34801561008157600080fd5b5061008a6101d6565b6040516100979190611779565b60405180910390f35b3480156100ac57600080fd5b506100b56101fa565b6040516100c29190611a27565b60405180910390f35b3480156100d757600080fd5b506100e0610200565b6040516100ed9190611a27565b60405180910390f35b34801561010257600080fd5b5061011d6004803603810190610118919061148d565b610224565b6040516101309796959493929190611a42565b60405180910390f35b34801561014557600080fd5b50610160600480360381019061015b919061148d565b61033b565b60405161016d9190611a27565b60405180910390f35b610190600480360381019061018b9190611395565b61039e565b60405161019d9190611a27565b60405180910390f35b6101c060048036038101906101bb9190611411565b610676565b6040516101cd9190611a27565b60405180910390f35b7f000000000000000000000000000000000000000000000000000000000000000081565b60015481565b7f000000000000000000000000000000000000000000000000000000000000000081565b60026020528060005260406000206000915090508060000154908060010160009054906101000a900473ffffffffffffffffffffffffffffffffffffffff16908060020154908060030154908060040160009054906101000a900473ffffffffffffffffffffffffffffffffffffffff16908060040160149054906101000a900460ff16908060050180546102b890611d15565b80601f01602080910402602001604051908101604052809291908181526020018280546102e490611d15565b80156103315780601f1061030657610100808354040283529160200191610331565b820191906000526020600020905b81548152906001019060200180831161031457829003601f168201915b5050505050905087565b600060647f0000000000000000000000000000000000000000000000000000000000000000606461036c9190611b4d565b600260008581526020019081526020016000206003015461038d9190611bd4565b6103979190611ba3565b9050919050565b6000836020013534146103e6576040517f08c379a00000000000000000000000000000000000000000000000000000000081526004016103dd90611a07565b60405180910390fd5b600061043e6103f486610939565b85858080601f016020809104026020016040519081016040528093929190818152602001838380828437600081840152601f19601f82011690508083019250505050505050610a1e565b90508460e00160208101906104539190611368565b73ffffffffffffffffffffffffffffffffffffffff168173ffffffffffffffffffffffffffffffffffffffff16146104c0576040517f08c379a00000000000000000000000000000000000000000000000000000000081526004016104b790611947565b60405180910390fd5b8460a00160208101906104d39190611368565b73ffffffffffffffffffffffffffffffffffffffff1663d204c45e338780604001906104ff9190611ab8565b6040518463ffffffff1660e01b815260040161051d93929190611794565b600060405180830381600087803b15801561053757600080fd5b505af115801561054b573d6000803e3d6000fd5b505050506105928560e00160208101906105659190611368565b60648760c0013560646105789190611c2e565b346105839190611bd4565b61058d9190611ba3565b610a76565b6105c98560600160208101906105a89190611368565b60648760c00135346105ba9190611bd4565b6105c49190611ba3565b610a76565b7f000000000000000000000000000000000000000000000000000000000000000073ffffffffffffffffffffffffffffffffffffffff166108fc60647f0000000000000000000000000000000000000000000000000000000000000000346106319190611bd4565b61063b9190611ba3565b9081150290604051600060405180830381858888f19350505050158015610666573d6000803e3d6000fd5b5084600001359150509392505050565b6000836020013534146106be576040517f08c379a00000000000000000000000000000000000000000000000000000000081526004016106b590611a07565b60405180910390fd5b60006107166106cc86610b6a565b85858080601f016020809104026020016040519081016040528093929190818152602001838380828437600081840152601f19601f82011690508083019250505050505050610a1e565b905061076185606001602081019061072e9190611368565b73ffffffffffffffffffffffffffffffffffffffff168273ffffffffffffffffffffffffffffffffffffffff1614610c4f565b8460600160208101906107749190611368565b73ffffffffffffffffffffffffffffffffffffffff168173ffffffffffffffffffffffffffffffffffffffff16146107e1576040517f08c379a00000000000000000000000000000000000000000000000000000000081526004016107d890611947565b60405180910390fd5b8460a00160208101906107f49190611368565b73ffffffffffffffffffffffffffffffffffffffff1663d204c45e338780604001906108209190611ab8565b6040518463ffffffff1660e01b815260040161083e93929190611794565b600060405180830381600087803b15801561085857600080fd5b505af115801561086c573d6000803e3d6000fd5b5050505061088c8560600160208101906108869190611368565b34610a76565b7f000000000000000000000000000000000000000000000000000000000000000073ffffffffffffffffffffffffffffffffffffffff166108fc60647f0000000000000000000000000000000000000000000000000000000000000000346108f49190611bd4565b6108fe9190611ba3565b9081150290604051600060405180830381858888f19350505050158015610929573d6000803e3d6000fd5b5084600001359150509392505050565b600080610a137f0e568609d4d781987ddab929e2bb6ed3271759598aed18eabd77d3cf2c500d6d8460000135856020013586806040019061097a9190611ab8565b604051610988929190611714565b60405180910390208760600160208101906109a39190611368565b8880608001906109b39190611ab8565b6040516109c1929190611714565b60405180910390208960a00160208101906109dc9190611368565b8a60c001356040516020016109f8989796959493929190611834565b60405160208183030381529060405280519060200120610ce8565b905080915050919050565b600080610a2b8484610d02565b9050610a6c6040518060400160405280600d81526020017f7369676e6572206f75747075740000000000000000000000000000000000000081525082610d29565b8091505092915050565b80471015610ab9576040517f08c379a0000000000000000000000000000000000000000000000000000000008152600401610ab0906119c7565b60405180910390fd5b60008273ffffffffffffffffffffffffffffffffffffffff1682604051610adf90611764565b60006040518083038185875af1925050503d8060008114610b1c576040519150601f19603f3d011682016040523d82523d6000602084013e610b21565b606091505b5050905080610b65576040517f08c379a0000000000000000000000000000000000000000000000000000000008152600401610b5c90611987565b60405180910390fd5b505050565b600080610c447f0e568609d4d781987ddab929e2bb6ed3271759598aed18eabd77d3cf2c500d6d84600001358560200135868060400190610bab9190611ab8565b604051610bb9929190611714565b6040518091039020876060016020810190610bd49190611368565b888060800190610be49190611ab8565b604051610bf2929190611714565b60405180910390208960a0016020810190610c0d9190611368565b8a60c00135604051602001610c29989796959493929190611834565b60405160208183030381529060405280519060200120610ce8565b905080915050919050565b610ce581604051602401610c6391906117c6565b6040516020818303038152906040527f32458eed000000000000000000000000000000000000000000000000000000007bffffffffffffffffffffffffffffffffffffffffffffffffffffffff19166020820180517bffffffffffffffffffffffffffffffffffffffffffffffffffffffff8381831617835250505050610dc5565b50565b6000610cfb610cf5610dee565b83610f08565b9050919050565b6000806000610d118585610f3b565b91509150610d1e81610f8d565b819250505092915050565b610dc18282604051602401610d3f9291906118f7565b6040516020818303038152906040527f319af333000000000000000000000000000000000000000000000000000000007bffffffffffffffffffffffffffffffffffffffffffffffffffffffff19166020820180517bffffffffffffffffffffffffffffffffffffffffffffffffffffffff8381831617835250505050610dc5565b5050565b60008151905060006a636f6e736f6c652e6c6f679050602083016000808483855afa5050505050565b60007f000000000000000000000000000000000000000000000000000000000000000073ffffffffffffffffffffffffffffffffffffffff163073ffffffffffffffffffffffffffffffffffffffff16148015610e6a57507f000000000000000000000000000000000000000000000000000000000000000046145b15610e97577f00000000000000000000000000000000000000000000000000000000000000009050610f05565b610f027f00000000000000000000000000000000000000000000000000000000000000007f00000000000000000000000000000000000000000000000000000000000000007f0000000000000000000000000000000000000000000000000000000000000000611162565b90505b90565b60008282604051602001610f1d92919061172d565b60405160208183030381529060405280519060200120905092915050565b600080604183511415610f7d5760008060006020860151925060408601519150606086015160001a9050610f718782858561119c565b94509450505050610f86565b60006002915091505b9250929050565b60006004811115610fa157610fa0611daf565b5b816004811115610fb457610fb3611daf565b5b1415610fbf5761115f565b60016004811115610fd357610fd2611daf565b5b816004811115610fe657610fe5611daf565b5b1415611027576040517f08c379a000000000000000000000000000000000000000000000000000000000815260040161101e90611927565b60405180910390fd5b6002600481111561103b5761103a611daf565b5b81600481111561104e5761104d611daf565b5b141561108f576040517f08c379a000000000000000000000000000000000000000000000000000000000815260040161108690611967565b60405180910390fd5b600360048111156110a3576110a2611daf565b5b8160048111156110b6576110b5611daf565b5b14156110f7576040517f08c379a00000000000000000000000000000000000000000000000000000000081526004016110ee906119a7565b60405180910390fd5b60048081111561110a57611109611daf565b5b81600481111561111d5761111c611daf565b5b141561115e576040517f08c379a0000000000000000000000000000000000000000000000000000000008152600401611155906119e7565b60405180910390fd5b5b50565b6000838383463060405160200161117d9594939291906117e1565b6040516020818303038152906040528051906020012090509392505050565b6000807f7fffffffffffffffffffffffffffffff5d576e7357a4501ddfe92f46681b20a08360001c11156111d75760006003915091506112a0565b601b8560ff16141580156111ef5750601c8560ff1614155b156112015760006004915091506112a0565b60006001878787876040516000815260200160405260405161122694939291906118b2565b6020604051602081039080840390855afa158015611248573d6000803e3d6000fd5b505050602060405103519050600073ffffffffffffffffffffffffffffffffffffffff168173ffffffffffffffffffffffffffffffffffffffff161415611297576000600192509250506112a0565b80600092509250505b94509492505050565b6000813590506112b881612057565b92915050565b60008083601f8401126112d4576112d3611e12565b5b8235905067ffffffffffffffff8111156112f1576112f0611e0d565b5b60208301915083600182028301111561130d5761130c611e26565b5b9250929050565b6000610100828403121561132b5761132a611e1c565b5b81905092915050565b600060e0828403121561134a57611349611e1c565b5b81905092915050565b6000813590506113628161206e565b92915050565b60006020828403121561137e5761137d611e35565b5b600061138c848285016112a9565b91505092915050565b6000806000604084860312156113ae576113ad611e35565b5b600084013567ffffffffffffffff8111156113cc576113cb611e30565b5b6113d886828701611314565b935050602084013567ffffffffffffffff8111156113f9576113f8611e30565b5b611405868287016112be565b92509250509250925092565b60008060006040848603121561142a57611429611e35565b5b600084013567ffffffffffffffff81111561144857611447611e30565b5b61145486828701611334565b935050602084013567ffffffffffffffff81111561147557611474611e30565b5b611481868287016112be565b92509250509250925092565b6000602082840312156114a3576114a2611e35565b5b60006114b184828501611353565b91505092915050565b6114c381611c74565b82525050565b6114d281611c62565b82525050565b6114e181611c86565b82525050565b6114f081611c92565b82525050565b61150761150282611c92565b611d47565b82525050565b60006115198385611b26565b9350611526838584611cd3565b82840190509392505050565b600061153e8385611b31565b935061154b838584611cd3565b61155483611e3a565b840190509392505050565b600061156a82611b1b565b6115748185611b31565b9350611584818560208601611ce2565b61158d81611e3a565b840191505092915050565b60006115a5601883611b31565b91506115b082611e4b565b602082019050919050565b60006115c8601183611b31565b91506115d382611e74565b602082019050919050565b60006115eb601f83611b31565b91506115f682611e9d565b602082019050919050565b600061160e600283611b42565b915061161982611ec6565b600282019050919050565b6000611631603a83611b31565b915061163c82611eef565b604082019050919050565b6000611654602283611b31565b915061165f82611f3e565b604082019050919050565b6000611677601d83611b31565b915061168282611f8d565b602082019050919050565b600061169a602283611b31565b91506116a582611fb6565b604082019050919050565b60006116bd600083611b26565b91506116c882612005565b600082019050919050565b60006116e0602383611b31565b91506116eb82612008565b604082019050919050565b6116ff81611cbc565b82525050565b61170e81611cc6565b82525050565b600061172182848661150d565b91508190509392505050565b600061173882611601565b915061174482856114f6565b60208201915061175482846114f6565b6020820191508190509392505050565b600061176f826116b0565b9150819050919050565b600060208201905061178e60008301846114ba565b92915050565b60006040820190506117a960008301866114c9565b81810360208301526117bc818486611532565b9050949350505050565b60006020820190506117db60008301846114d8565b92915050565b600060a0820190506117f660008301886114e7565b61180360208301876114e7565b61181060408301866114e7565b61181d60608301856116f6565b61182a60808301846114c9565b9695505050505050565b60006101008201905061184a600083018b6114e7565b611857602083018a6116f6565b61186460408301896116f6565b61187160608301886114e7565b61187e60808301876114c9565b61188b60a08301866114e7565b61189860c08301856114c9565b6118a560e08301846116f6565b9998505050505050505050565b60006080820190506118c760008301876114e7565b6118d46020830186611705565b6118e160408301856114e7565b6118ee60608301846114e7565b95945050505050565b60006040820190508181036000830152611911818561155f565b905061192060208301846114c9565b9392505050565b6000602082019050818103600083015261194081611598565b9050919050565b60006020820190508181036000830152611960816115bb565b9050919050565b60006020820190508181036000830152611980816115de565b9050919050565b600060208201905081810360008301526119a081611624565b9050919050565b600060208201905081810360008301526119c081611647565b9050919050565b600060208201905081810360008301526119e08161166a565b9050919050565b60006020820190508181036000830152611a008161168d565b9050919050565b60006020820190508181036000830152611a20816116d3565b9050919050565b6000602082019050611a3c60008301846116f6565b92915050565b600060e082019050611a57600083018a6116f6565b611a6460208301896114c9565b611a7160408301886116f6565b611a7e60608301876116f6565b611a8b60808301866114ba565b611a9860a08301856114d8565b81810360c0830152611aaa818461155f565b905098975050505050505050565b60008083356001602003843603038112611ad557611ad4611e21565b5b80840192508235915067ffffffffffffffff821115611af757611af6611e17565b5b602083019250600182023603831315611b1357611b12611e2b565b5b509250929050565b600081519050919050565b600081905092915050565b600082825260208201905092915050565b600081905092915050565b6000611b5882611cbc565b9150611b6383611cbc565b9250827fffffffffffffffffffffffffffffffffffffffffffffffffffffffffffffffff03821115611b9857611b97611d51565b5b828201905092915050565b6000611bae82611cbc565b9150611bb983611cbc565b925082611bc957611bc8611d80565b5b828204905092915050565b6000611bdf82611cbc565b9150611bea83611cbc565b9250817fffffffffffffffffffffffffffffffffffffffffffffffffffffffffffffffff0483118215151615611c2357611c22611d51565b5b828202905092915050565b6000611c3982611cbc565b9150611c4483611cbc565b925082821015611c5757611c56611d51565b5b828203905092915050565b6000611c6d82611c9c565b9050919050565b6000611c7f82611c9c565b9050919050565b60008115159050919050565b6000819050919050565b600073ffffffffffffffffffffffffffffffffffffffff82169050919050565b6000819050919050565b600060ff82169050919050565b82818337600083830152505050565b60005b83811015611d00578082015181840152602081019050611ce5565b83811115611d0f576000848401525b50505050565b60006002820490506001821680611d2d57607f821691505b60208210811415611d4157611d40611dde565b5b50919050565b6000819050919050565b7f4e487b7100000000000000000000000000000000000000000000000000000000600052601160045260246000fd5b7f4e487b7100000000000000000000000000000000000000000000000000000000600052601260045260246000fd5b7f4e487b7100000000000000000000000000000000000000000000000000000000600052602160045260246000fd5b7f4e487b7100000000000000000000000000000000000000000000000000000000600052602260045260246000fd5b600080fd5b600080fd5b600080fd5b600080fd5b600080fd5b600080fd5b600080fd5b600080fd5b600080fd5b6000601f19601f8301169050919050565b7f45434453413a20696e76616c6964207369676e61747572650000000000000000600082015250565b7f696e76616c6964207369676e6174757265000000000000000000000000000000600082015250565b7f45434453413a20696e76616c6964207369676e6174757265206c656e67746800600082015250565b7f1901000000000000000000000000000000000000000000000000000000000000600082015250565b7f416464726573733a20756e61626c6520746f2073656e642076616c75652c207260008201527f6563697069656e74206d61792068617665207265766572746564000000000000602082015250565b7f45434453413a20696e76616c6964207369676e6174757265202773272076616c60008201527f7565000000000000000000000000000000000000000000000000000000000000602082015250565b7f416464726573733a20696e73756666696369656e742062616c616e6365000000600082015250565b7f45434453413a20696e76616c6964207369676e6174757265202776272076616c60008201527f7565000000000000000000000000000000000000000000000000000000000000602082015250565b50565b7f53696d6f6e4465764e46543a204d6573736167652076616c756520213d20707260008201527f6963650000000000000000000000000000000000000000000000000000000000602082015250565b61206081611c62565b811461206b57600080fd5b50565b61207781611cbc565b811461208257600080fd5b5056fea26469706673582212203c8bed005f3ed39aa3b4770c1d9954d6f4ca92d6d792ea0e70ba90c112b5b64e64736f6c63430008070033",
  "linkReferences": {},
  "deployedLinkReferences": {}
}