{
  "_format": "hh-sol-artifact-1",
  "contractName": "Marketplace",
  "sourceName": "contracts/Marketplace.sol",
  "abi": [
    {
      "inputs": [
        {
          "internalType": "uint256",
          "name": "_feePercent",
          "type": "uint256"
        }
      ],
      "stateMutability": "nonpayable",
      "type": "constructor"
    },
    {
      "anonymous": false,
      "inputs": [
        {
          "indexed": false,
          "internalType": "uint256",
          "name": "itemId",
          "type": "uint256"
        },
        {
          "indexed": true,
          "internalType": "string",
          "name": "category",
          "type": "string"
        },
        {
          "indexed": false,
          "internalType": "uint256",
          "name": "tokenId",
          "type": "uint256"
        },
        {
          "indexed": false,
          "internalType": "address",
          "name": "nftCollection",
          "type": "address"
        },
        {
          "indexed": false,
          "internalType": "uint256",
          "name": "price",
          "type": "uint256"
        },
        {
          "indexed": true,
          "internalType": "address",
          "name": "creator",
          "type": "address"
        },
        {
          "indexed": true,
          "internalType": "address",
          "name": "buyer",
          "type": "address"
        }
      ],
      "name": "Bought",
      "type": "event"
    },
    {
      "inputs": [],
      "name": "feeAccount",
      "outputs": [
        {
          "internalType": "address payable",
          "name": "",
          "type": "address"
        }
      ],
      "stateMutability": "view",
      "type": "function"
    },
    {
      "inputs": [],
      "name": "feePercent",
      "outputs": [
        {
          "internalType": "uint256",
          "name": "",
          "type": "uint256"
        }
      ],
      "stateMutability": "view",
      "type": "function"
    },
    {
      "inputs": [
        {
          "internalType": "uint256",
          "name": "_itemId",
          "type": "uint256"
        }
      ],
      "name": "getTotalPrice",
      "outputs": [
        {
          "internalType": "uint256",
          "name": "",
          "type": "uint256"
        }
      ],
      "stateMutability": "view",
      "type": "function"
    },
    {
      "inputs": [],
      "name": "itemCount",
      "outputs": [
        {
          "internalType": "uint256",
          "name": "",
          "type": "uint256"
        }
      ],
      "stateMutability": "view",
      "type": "function"
    },
    {
      "inputs": [
        {
          "internalType": "uint256",
          "name": "",
          "type": "uint256"
        }
      ],
      "name": "items",
      "outputs": [
        {
          "internalType": "uint256",
          "name": "itemId",
          "type": "uint256"
        },
        {
          "internalType": "address",
          "name": "nftCollection",
          "type": "address"
        },
        {
          "internalType": "uint256",
          "name": "tokenId",
          "type": "uint256"
        },
        {
          "internalType": "uint256",
          "name": "price",
          "type": "uint256"
        },
        {
          "internalType": "address payable",
          "name": "buyer",
          "type": "address"
        },
        {
          "internalType": "bool",
          "name": "sold",
          "type": "bool"
        },
        {
          "internalType": "string",
          "name": "category",
          "type": "string"
        }
      ],
      "stateMutability": "view",
      "type": "function"
    },
    {
      "inputs": [
        {
          "components": [
            {
              "internalType": "uint256",
              "name": "tokenID",
              "type": "uint256"
            },
            {
              "internalType": "uint256",
              "name": "price",
              "type": "uint256"
            },
            {
              "internalType": "string",
              "name": "uri",
              "type": "string"
            },
            {
              "internalType": "address",
              "name": "creator",
              "type": "address"
            },
            {
              "internalType": "string",
              "name": "category",
              "type": "string"
            },
            {
              "internalType": "address",
              "name": "collection",
              "type": "address"
            },
            {
              "internalType": "uint256",
              "name": "royality",
              "type": "uint256"
            }
          ],
          "internalType": "struct Marketplace.SignedNFTData",
          "name": "nft",
          "type": "tuple"
        },
        {
          "internalType": "bytes",
          "name": "signature",
          "type": "bytes"
        }
      ],
      "name": "lazyMintNFT",
      "outputs": [
        {
          "internalType": "uint256",
          "name": "",
          "type": "uint256"
        }
      ],
      "stateMutability": "payable",
      "type": "function"
    },
    {
      "inputs": [
        {
          "components": [
            {
              "internalType": "uint256",
              "name": "tokenID",
              "type": "uint256"
            },
            {
              "internalType": "uint256",
              "name": "price",
              "type": "uint256"
            },
            {
              "internalType": "string",
              "name": "uri",
              "type": "string"
            },
            {
              "internalType": "address",
              "name": "creator",
              "type": "address"
            },
            {
              "internalType": "string",
              "name": "category",
              "type": "string"
            },
            {
              "internalType": "address",
              "name": "collection",
              "type": "address"
            },
            {
              "internalType": "uint256",
              "name": "royality",
              "type": "uint256"
            },
            {
              "internalType": "address",
              "name": "owner",
              "type": "address"
            }
          ],
          "internalType": "struct Marketplace.MintData",
          "name": "nft",
          "type": "tuple"
        },
        {
          "internalType": "bytes",
          "name": "signature",
          "type": "bytes"
        }
      ],
      "name": "mintNFT",
      "outputs": [
        {
          "internalType": "uint256",
          "name": "",
          "type": "uint256"
        }
      ],
      "stateMutability": "payable",
      "type": "function"
    }
  ],
  "bytecode": "0x6101806040523480156200001257600080fd5b50604051620023ec380380620023ec8339818101604052810190620000389190620001fc565b6040518060400160405280601081526020017f4c617a79204d61726b6574706c616365000000000000000000000000000000008152506040518060400160405280600381526020017f312e300000000000000000000000000000000000000000000000000000000000815250600160008190555060008280519060200120905060008280519060200120905060007f8b73c3c69bb8fe3d512ecc4cf759cc79239f7b179b0ffacaa9a75d522b39400f90508260e081815250508161010081815250504660a0818152505062000115818484620001a960201b60201c565b608081815250503073ffffffffffffffffffffffffffffffffffffffff1660c08173ffffffffffffffffffffffffffffffffffffffff1660601b8152505080610120818152505050505050503373ffffffffffffffffffffffffffffffffffffffff166101408173ffffffffffffffffffffffffffffffffffffffff1660601b81525050806101608181525050506200031a565b60008383834630604051602001620001c69594939291906200025b565b6040516020818303038152906040528051906020012090509392505050565b600081519050620001f68162000300565b92915050565b6000602082840312156200020f57600080fd5b60006200021f84828501620001e5565b91505092915050565b6200023381620002b8565b82525050565b6200024481620002cc565b82525050565b6200025581620002f6565b82525050565b600060a08201905062000272600083018862000239565b62000281602083018762000239565b62000290604083018662000239565b6200029f60608301856200024a565b620002ae608083018462000228565b9695505050505050565b6000620002c582620002d6565b9050919050565b6000819050919050565b600073ffffffffffffffffffffffffffffffffffffffff82169050919050565b6000819050919050565b6200030b81620002f6565b81146200031757600080fd5b50565b60805160a05160c05160601c60e05161010051610120516101405160601c6101605161205f6200038d600039600081816102020152610341015260006101d801526000610d6001526000610da201526000610d8101526000610cb601526000610d0c01526000610d35015261205f6000f3fe6080604052600436106100705760003560e01c8063bfb231d21161004e578063bfb231d2146100f6578063ca7dd37514610139578063d7293a1114610176578063db77ede7146101a657610070565b806365e17c9d146100755780636bfb0d01146100a05780637fd6f15c146100cb575b600080fd5b34801561008157600080fd5b5061008a6101d6565b6040516100979190611785565b60405180910390f35b3480156100ac57600080fd5b506100b56101fa565b6040516100c29190611a33565b60405180910390f35b3480156100d757600080fd5b506100e0610200565b6040516100ed9190611a33565b60405180910390f35b34801561010257600080fd5b5061011d6004803603810190610118919061149d565b610224565b6040516101309796959493929190611a4e565b60405180910390f35b34801561014557600080fd5b50610160600480360381019061015b919061149d565b61033b565b60405161016d9190611a33565b60405180910390f35b610190600480360381019061018b91906113bd565b61039e565b60405161019d9190611a33565b60405180910390f35b6101c060048036038101906101bb919061142d565b6105d8565b6040516101cd9190611a33565b60405180910390f35b7f000000000000000000000000000000000000000000000000000000000000000081565b60015481565b7f000000000000000000000000000000000000000000000000000000000000000081565b60026020528060005260406000206000915090508060000154908060010160009054906101000a900473ffffffffffffffffffffffffffffffffffffffff16908060020154908060030154908060040160009054906101000a900473ffffffffffffffffffffffffffffffffffffffff16908060040160149054906101000a900460ff16908060050180546102b890611d15565b80601f01602080910402602001604051908101604052809291908181526020018280546102e490611d15565b80156103315780601f1061030657610100808354040283529160200191610331565b820191906000526020600020905b81548152906001019060200180831161031457829003601f168201915b5050505050905087565b600060647f0000000000000000000000000000000000000000000000000000000000000000606461036c9190611b4d565b600260008581526020019081526020016000206003015461038d9190611bd4565b6103979190611ba3565b9050919050565b6000836020013534146103e6576040517f08c379a00000000000000000000000000000000000000000000000000000000081526004016103dd90611a13565b60405180910390fd5b600061043e6103f4866107fd565b85858080601f016020809104026020016040519081016040528093929190818152602001838380828437600081840152601f19601f820116905080830192505050505050506108e2565b90508460e00160208101906104539190611394565b73ffffffffffffffffffffffffffffffffffffffff168173ffffffffffffffffffffffffffffffffffffffff16146104c0576040517f08c379a00000000000000000000000000000000000000000000000000000000081526004016104b790611953565b60405180910390fd5b8460a00160208101906104d39190611394565b73ffffffffffffffffffffffffffffffffffffffff1663d204c45e338780604001906104ff9190611ac4565b6040518463ffffffff1660e01b815260040161051d939291906117a0565b600060405180830381600087803b15801561053757600080fd5b505af115801561054b573d6000803e3d6000fd5b505050506105928560e00160208101906105659190611394565b60648760c0013560646105789190611c2e565b346105839190611bd4565b61058d9190611ba3565b61093a565b6105c98560600160208101906105a89190611394565b60648760c00135346105ba9190611bd4565b6105c49190611ba3565b61093a565b84600001359150509392505050565b600083602001353414610620576040517f08c379a000000000000000000000000000000000000000000000000000000000815260040161061790611a13565b60405180910390fd5b600061067861062e86610a2e565b85858080601f016020809104026020016040519081016040528093929190818152602001838380828437600081840152601f19601f820116905080830192505050505050506108e2565b90506106c38560600160208101906106909190611394565b73ffffffffffffffffffffffffffffffffffffffff168273ffffffffffffffffffffffffffffffffffffffff1614610b13565b8460600160208101906106d69190611394565b73ffffffffffffffffffffffffffffffffffffffff168173ffffffffffffffffffffffffffffffffffffffff1614610743576040517f08c379a000000000000000000000000000000000000000000000000000000000815260040161073a90611953565b60405180910390fd5b8460a00160208101906107569190611394565b73ffffffffffffffffffffffffffffffffffffffff1663d204c45e338780604001906107829190611ac4565b6040518463ffffffff1660e01b81526004016107a0939291906117a0565b600060405180830381600087803b1580156107ba57600080fd5b505af11580156107ce573d6000803e3d6000fd5b505050506107ee8560600160208101906107e89190611394565b3461093a565b84600001359150509392505050565b6000806108d77f0e568609d4d781987ddab929e2bb6ed3271759598aed18eabd77d3cf2c500d6d8460000135856020013586806040019061083e9190611ac4565b60405161084c929190611720565b60405180910390208760600160208101906108679190611394565b8880608001906108779190611ac4565b604051610885929190611720565b60405180910390208960a00160208101906108a09190611394565b8a60c001356040516020016108bc989796959493929190611840565b60405160208183030381529060405280519060200120610bac565b905080915050919050565b6000806108ef8484610bc6565b90506109306040518060400160405280600d81526020017f7369676e6572206f75747075740000000000000000000000000000000000000081525082610bed565b8091505092915050565b8047101561097d576040517f08c379a0000000000000000000000000000000000000000000000000000000008152600401610974906119d3565b60405180910390fd5b60008273ffffffffffffffffffffffffffffffffffffffff16826040516109a390611770565b60006040518083038185875af1925050503d80600081146109e0576040519150601f19603f3d011682016040523d82523d6000602084013e6109e5565b606091505b5050905080610a29576040517f08c379a0000000000000000000000000000000000000000000000000000000008152600401610a2090611993565b60405180910390fd5b505050565b600080610b087f0e568609d4d781987ddab929e2bb6ed3271759598aed18eabd77d3cf2c500d6d84600001358560200135868060400190610a6f9190611ac4565b604051610a7d929190611720565b6040518091039020876060016020810190610a989190611394565b888060800190610aa89190611ac4565b604051610ab6929190611720565b60405180910390208960a0016020810190610ad19190611394565b8a60c00135604051602001610aed989796959493929190611840565b60405160208183030381529060405280519060200120610bac565b905080915050919050565b610ba981604051602401610b2791906117d2565b6040516020818303038152906040527f32458eed000000000000000000000000000000000000000000000000000000007bffffffffffffffffffffffffffffffffffffffffffffffffffffffff19166020820180517bffffffffffffffffffffffffffffffffffffffffffffffffffffffff8381831617835250505050610c89565b50565b6000610bbf610bb9610cb2565b83610dcc565b9050919050565b6000806000610bd58585610dff565b91509150610be281610e51565b819250505092915050565b610c858282604051602401610c03929190611903565b6040516020818303038152906040527f319af333000000000000000000000000000000000000000000000000000000007bffffffffffffffffffffffffffffffffffffffffffffffffffffffff19166020820180517bffffffffffffffffffffffffffffffffffffffffffffffffffffffff8381831617835250505050610c89565b5050565b60008151905060006a636f6e736f6c652e6c6f679050602083016000808483855afa5050505050565b60007f000000000000000000000000000000000000000000000000000000000000000073ffffffffffffffffffffffffffffffffffffffff163073ffffffffffffffffffffffffffffffffffffffff16148015610d2e57507f000000000000000000000000000000000000000000000000000000000000000046145b15610d5b577f00000000000000000000000000000000000000000000000000000000000000009050610dc9565b610dc67f00000000000000000000000000000000000000000000000000000000000000007f00000000000000000000000000000000000000000000000000000000000000007f00000000000000000000000000000000000000000000000000000000000000006111a2565b90505b90565b60008282604051602001610de1929190611739565b60405160208183030381529060405280519060200120905092915050565b600080604183511415610e415760008060006020860151925060408601519150606086015160001a9050610e35878285856111dc565b94509450505050610e4a565b60006002915091505b9250929050565b60006004811115610e8b577f4e487b7100000000000000000000000000000000000000000000000000000000600052602160045260246000fd5b816004811115610ec4577f4e487b7100000000000000000000000000000000000000000000000000000000600052602160045260246000fd5b1415610ecf5761119f565b60016004811115610f09577f4e487b7100000000000000000000000000000000000000000000000000000000600052602160045260246000fd5b816004811115610f42577f4e487b7100000000000000000000000000000000000000000000000000000000600052602160045260246000fd5b1415610f83576040517f08c379a0000000000000000000000000000000000000000000000000000000008152600401610f7a90611933565b60405180910390fd5b60026004811115610fbd577f4e487b7100000000000000000000000000000000000000000000000000000000600052602160045260246000fd5b816004811115610ff6577f4e487b7100000000000000000000000000000000000000000000000000000000600052602160045260246000fd5b1415611037576040517f08c379a000000000000000000000000000000000000000000000000000000000815260040161102e90611973565b60405180910390fd5b60036004811115611071577f4e487b7100000000000000000000000000000000000000000000000000000000600052602160045260246000fd5b8160048111156110aa577f4e487b7100000000000000000000000000000000000000000000000000000000600052602160045260246000fd5b14156110eb576040517f08c379a00000000000000000000000000000000000000000000000000000000081526004016110e2906119b3565b60405180910390fd5b600480811115611124577f4e487b7100000000000000000000000000000000000000000000000000000000600052602160045260246000fd5b81600481111561115d577f4e487b7100000000000000000000000000000000000000000000000000000000600052602160045260246000fd5b141561119e576040517f08c379a0000000000000000000000000000000000000000000000000000000008152600401611195906119f3565b60405180910390fd5b5b50565b600083838346306040516020016111bd9594939291906117ed565b6040516020818303038152906040528051906020012090509392505050565b6000807f7fffffffffffffffffffffffffffffff5d576e7357a4501ddfe92f46681b20a08360001c11156112175760006003915091506112e0565b601b8560ff161415801561122f5750601c8560ff1614155b156112415760006004915091506112e0565b60006001878787876040516000815260200160405260405161126694939291906118be565b6020604051602081039080840390855afa158015611288573d6000803e3d6000fd5b505050602060405103519050600073ffffffffffffffffffffffffffffffffffffffff168173ffffffffffffffffffffffffffffffffffffffff1614156112d7576000600192509250506112e0565b80600092509250505b94509492505050565b6000813590506112f881611ffb565b92915050565b60008083601f84011261131057600080fd5b8235905067ffffffffffffffff81111561132957600080fd5b60208301915083600182028301111561134157600080fd5b9250929050565b6000610100828403121561135b57600080fd5b81905092915050565b600060e0828403121561137657600080fd5b81905092915050565b60008135905061138e81612012565b92915050565b6000602082840312156113a657600080fd5b60006113b4848285016112e9565b91505092915050565b6000806000604084860312156113d257600080fd5b600084013567ffffffffffffffff8111156113ec57600080fd5b6113f886828701611348565b935050602084013567ffffffffffffffff81111561141557600080fd5b611421868287016112fe565b92509250509250925092565b60008060006040848603121561144257600080fd5b600084013567ffffffffffffffff81111561145c57600080fd5b61146886828701611364565b935050602084013567ffffffffffffffff81111561148557600080fd5b611491868287016112fe565b92509250509250925092565b6000602082840312156114af57600080fd5b60006114bd8482850161137f565b91505092915050565b6114cf81611c74565b82525050565b6114de81611c62565b82525050565b6114ed81611c86565b82525050565b6114fc81611c92565b82525050565b61151361150e82611c92565b611d47565b82525050565b60006115258385611b26565b9350611532838584611cd3565b82840190509392505050565b600061154a8385611b31565b9350611557838584611cd3565b61156083611dde565b840190509392505050565b600061157682611b1b565b6115808185611b31565b9350611590818560208601611ce2565b61159981611dde565b840191505092915050565b60006115b1601883611b31565b91506115bc82611def565b602082019050919050565b60006115d4601183611b31565b91506115df82611e18565b602082019050919050565b60006115f7601f83611b31565b915061160282611e41565b602082019050919050565b600061161a600283611b42565b915061162582611e6a565b600282019050919050565b600061163d603a83611b31565b915061164882611e93565b604082019050919050565b6000611660602283611b31565b915061166b82611ee2565b604082019050919050565b6000611683601d83611b31565b915061168e82611f31565b602082019050919050565b60006116a6602283611b31565b91506116b182611f5a565b604082019050919050565b60006116c9600083611b26565b91506116d482611fa9565b600082019050919050565b60006116ec602383611b31565b91506116f782611fac565b604082019050919050565b61170b81611cbc565b82525050565b61171a81611cc6565b82525050565b600061172d828486611519565b91508190509392505050565b60006117448261160d565b91506117508285611502565b6020820191506117608284611502565b6020820191508190509392505050565b600061177b826116bc565b9150819050919050565b600060208201905061179a60008301846114c6565b92915050565b60006040820190506117b560008301866114d5565b81810360208301526117c881848661153e565b9050949350505050565b60006020820190506117e760008301846114e4565b92915050565b600060a08201905061180260008301886114f3565b61180f60208301876114f3565b61181c60408301866114f3565b6118296060830185611702565b61183660808301846114d5565b9695505050505050565b600061010082019050611856600083018b6114f3565b611863602083018a611702565b6118706040830189611702565b61187d60608301886114f3565b61188a60808301876114d5565b61189760a08301866114f3565b6118a460c08301856114d5565b6118b160e0830184611702565b9998505050505050505050565b60006080820190506118d360008301876114f3565b6118e06020830186611711565b6118ed60408301856114f3565b6118fa60608301846114f3565b95945050505050565b6000604082019050818103600083015261191d818561156b565b905061192c60208301846114d5565b9392505050565b6000602082019050818103600083015261194c816115a4565b9050919050565b6000602082019050818103600083015261196c816115c7565b9050919050565b6000602082019050818103600083015261198c816115ea565b9050919050565b600060208201905081810360008301526119ac81611630565b9050919050565b600060208201905081810360008301526119cc81611653565b9050919050565b600060208201905081810360008301526119ec81611676565b9050919050565b60006020820190508181036000830152611a0c81611699565b9050919050565b60006020820190508181036000830152611a2c816116df565b9050919050565b6000602082019050611a486000830184611702565b92915050565b600060e082019050611a63600083018a611702565b611a7060208301896114d5565b611a7d6040830188611702565b611a8a6060830187611702565b611a9760808301866114c6565b611aa460a08301856114e4565b81810360c0830152611ab6818461156b565b905098975050505050505050565b60008083356001602003843603038112611add57600080fd5b80840192508235915067ffffffffffffffff821115611afb57600080fd5b602083019250600182023603831315611b1357600080fd5b509250929050565b600081519050919050565b600081905092915050565b600082825260208201905092915050565b600081905092915050565b6000611b5882611cbc565b9150611b6383611cbc565b9250827fffffffffffffffffffffffffffffffffffffffffffffffffffffffffffffffff03821115611b9857611b97611d51565b5b828201905092915050565b6000611bae82611cbc565b9150611bb983611cbc565b925082611bc957611bc8611d80565b5b828204905092915050565b6000611bdf82611cbc565b9150611bea83611cbc565b9250817fffffffffffffffffffffffffffffffffffffffffffffffffffffffffffffffff0483118215151615611c2357611c22611d51565b5b828202905092915050565b6000611c3982611cbc565b9150611c4483611cbc565b925082821015611c5757611c56611d51565b5b828203905092915050565b6000611c6d82611c9c565b9050919050565b6000611c7f82611c9c565b9050919050565b60008115159050919050565b6000819050919050565b600073ffffffffffffffffffffffffffffffffffffffff82169050919050565b6000819050919050565b600060ff82169050919050565b82818337600083830152505050565b60005b83811015611d00578082015181840152602081019050611ce5565b83811115611d0f576000848401525b50505050565b60006002820490506001821680611d2d57607f821691505b60208210811415611d4157611d40611daf565b5b50919050565b6000819050919050565b7f4e487b7100000000000000000000000000000000000000000000000000000000600052601160045260246000fd5b7f4e487b7100000000000000000000000000000000000000000000000000000000600052601260045260246000fd5b7f4e487b7100000000000000000000000000000000000000000000000000000000600052602260045260246000fd5b6000601f19601f8301169050919050565b7f45434453413a20696e76616c6964207369676e61747572650000000000000000600082015250565b7f696e76616c6964207369676e6174757265000000000000000000000000000000600082015250565b7f45434453413a20696e76616c6964207369676e6174757265206c656e67746800600082015250565b7f1901000000000000000000000000000000000000000000000000000000000000600082015250565b7f416464726573733a20756e61626c6520746f2073656e642076616c75652c207260008201527f6563697069656e74206d61792068617665207265766572746564000000000000602082015250565b7f45434453413a20696e76616c6964207369676e6174757265202773272076616c60008201527f7565000000000000000000000000000000000000000000000000000000000000602082015250565b7f416464726573733a20696e73756666696369656e742062616c616e6365000000600082015250565b7f45434453413a20696e76616c6964207369676e6174757265202776272076616c60008201527f7565000000000000000000000000000000000000000000000000000000000000602082015250565b50565b7f53696d6f6e4465764e46543a204d6573736167652076616c756520213d20707260008201527f6963650000000000000000000000000000000000000000000000000000000000602082015250565b61200481611c62565b811461200f57600080fd5b50565b61201b81611cbc565b811461202657600080fd5b5056fea264697066735822122085d9530cadae4f13adeec1cfbbc3b6684e6f3021270b017d596c0d90d6e553cd64736f6c63430008040033",
  "linkReferences": {},
  "deployedLinkReferences": {}
}