{
  "_format": "hh-sol-artifact-1",
  "contractName": "Marketplace",
  "sourceName": "contracts/Marketplace.sol",
  "abi": [
    {
      "inputs": [
        {
          "internalType": "uint256",
          "name": "_feePercent",
          "type": "uint256"
        },
        {
          "internalType": "address",
          "name": "_adminAccount",
          "type": "address"
        }
      ],
      "stateMutability": "nonpayable",
      "type": "constructor"
    },
    {
      "anonymous": false,
      "inputs": [
        {
          "indexed": false,
          "internalType": "uint256",
          "name": "itemId",
          "type": "uint256"
        },
        {
          "indexed": true,
          "internalType": "string",
          "name": "category",
          "type": "string"
        },
        {
          "indexed": false,
          "internalType": "uint256",
          "name": "tokenId",
          "type": "uint256"
        },
        {
          "indexed": false,
          "internalType": "address",
          "name": "nftCollection",
          "type": "address"
        },
        {
          "indexed": false,
          "internalType": "uint256",
          "name": "price",
          "type": "uint256"
        },
        {
          "indexed": true,
          "internalType": "address",
          "name": "creator",
          "type": "address"
        },
        {
          "indexed": true,
          "internalType": "address",
          "name": "buyer",
          "type": "address"
        }
      ],
      "name": "Bought",
      "type": "event"
    },
    {
      "inputs": [],
      "name": "adminAccount",
      "outputs": [
        {
          "internalType": "address",
          "name": "",
          "type": "address"
        }
      ],
      "stateMutability": "view",
      "type": "function"
    },
    {
      "inputs": [],
      "name": "feeAccount",
      "outputs": [
        {
          "internalType": "address payable",
          "name": "",
          "type": "address"
        }
      ],
      "stateMutability": "view",
      "type": "function"
    },
    {
      "inputs": [],
      "name": "feePercent",
      "outputs": [
        {
          "internalType": "uint256",
          "name": "",
          "type": "uint256"
        }
      ],
      "stateMutability": "view",
      "type": "function"
    },
    {
      "inputs": [
        {
          "internalType": "uint256",
          "name": "_itemId",
          "type": "uint256"
        }
      ],
      "name": "getTotalPrice",
      "outputs": [
        {
          "internalType": "uint256",
          "name": "",
          "type": "uint256"
        }
      ],
      "stateMutability": "view",
      "type": "function"
    },
    {
      "inputs": [],
      "name": "itemCount",
      "outputs": [
        {
          "internalType": "uint256",
          "name": "",
          "type": "uint256"
        }
      ],
      "stateMutability": "view",
      "type": "function"
    },
    {
      "inputs": [
        {
          "internalType": "uint256",
          "name": "",
          "type": "uint256"
        }
      ],
      "name": "items",
      "outputs": [
        {
          "internalType": "uint256",
          "name": "itemId",
          "type": "uint256"
        },
        {
          "internalType": "address",
          "name": "nftCollection",
          "type": "address"
        },
        {
          "internalType": "uint256",
          "name": "tokenId",
          "type": "uint256"
        },
        {
          "internalType": "uint256",
          "name": "price",
          "type": "uint256"
        },
        {
          "internalType": "address payable",
          "name": "buyer",
          "type": "address"
        },
        {
          "internalType": "bool",
          "name": "sold",
          "type": "bool"
        },
        {
          "internalType": "string",
          "name": "category",
          "type": "string"
        }
      ],
      "stateMutability": "view",
      "type": "function"
    },
    {
      "inputs": [
        {
          "components": [
            {
              "internalType": "uint256",
              "name": "tokenID",
              "type": "uint256"
            },
            {
              "internalType": "uint256",
              "name": "price",
              "type": "uint256"
            },
            {
              "internalType": "string",
              "name": "uri",
              "type": "string"
            },
            {
              "internalType": "address",
              "name": "creator",
              "type": "address"
            },
            {
              "internalType": "string",
              "name": "category",
              "type": "string"
            },
            {
              "internalType": "address",
              "name": "collection",
              "type": "address"
            },
            {
              "internalType": "uint256",
              "name": "royality",
              "type": "uint256"
            },
            {
              "internalType": "address",
              "name": "owner",
              "type": "address"
            },
            {
              "internalType": "uint256",
              "name": "saleNum",
              "type": "uint256"
            },
            {
              "internalType": "address",
              "name": "buyer",
              "type": "address"
            },
            {
              "internalType": "uint256",
              "name": "payType",
              "type": "uint256"
            }
          ],
          "internalType": "struct Marketplace.MintData",
          "name": "nft",
          "type": "tuple"
        },
        {
          "internalType": "bytes",
          "name": "signature",
          "type": "bytes"
        }
      ],
      "name": "mintNFT",
      "outputs": [
        {
          "internalType": "uint256",
          "name": "",
          "type": "uint256"
        }
      ],
      "stateMutability": "payable",
      "type": "function"
    }
  ],
  "bytecode": "0x6101806040523480156200001257600080fd5b50604051620024b6380380620024b6833981810160405281019062000038919062000255565b6040518060400160405280601081526020017f4c617a79204d61726b6574706c616365000000000000000000000000000000008152506040518060400160405280600381526020017f312e300000000000000000000000000000000000000000000000000000000000815250600160008190555060008280519060200120905060008280519060200120905060007f8b73c3c69bb8fe3d512ecc4cf759cc79239f7b179b0ffacaa9a75d522b39400f90508260e081815250508161010081815250504660a0818152505062000115818484620001eb60201b60201c565b608081815250503073ffffffffffffffffffffffffffffffffffffffff1660c08173ffffffffffffffffffffffffffffffffffffffff1660601b8152505080610120818152505050505050503373ffffffffffffffffffffffffffffffffffffffff166101408173ffffffffffffffffffffffffffffffffffffffff1660601b8152505081610160818152505080600260006101000a81548173ffffffffffffffffffffffffffffffffffffffff021916908373ffffffffffffffffffffffffffffffffffffffff1602179055505050620003ad565b6000838383463060405160200162000208959493929190620002cf565b6040516020818303038152906040528051906020012090509392505050565b600081519050620002388162000379565b92915050565b6000815190506200024f8162000393565b92915050565b600080604083850312156200026f576200026e62000374565b5b60006200027f858286016200023e565b9250506020620002928582860162000227565b9150509250929050565b620002a7816200032c565b82525050565b620002b88162000340565b82525050565b620002c9816200036a565b82525050565b600060a082019050620002e66000830188620002ad565b620002f56020830187620002ad565b620003046040830186620002ad565b620003136060830185620002be565b6200032260808301846200029c565b9695505050505050565b600062000339826200034a565b9050919050565b6000819050919050565b600073ffffffffffffffffffffffffffffffffffffffff82169050919050565b6000819050919050565b600080fd5b62000384816200032c565b81146200039057600080fd5b50565b6200039e816200036a565b8114620003aa57600080fd5b50565b60805160a05160c05160601c60e05161010051610120516101405160601c610160516120736200044360003960008181610413015281816105060152818161072a0152818161081d015281816108d4015281816109480152610aad0152600061091e01526000610ec601526000610f0801526000610ee701526000610e1c01526000610e7201526000610e9b01526120736000f3fe6080604052600436106100705760003560e01c80637fd6f15c1161004e5780637fd6f15c146100fb578063bfb231d214610126578063c26e911814610169578063ca7dd3751461019457610070565b806356968cd91461007557806365e17c9d146100a55780636bfb0d01146100d0575b600080fd5b61008f600480360381019061008a91906113c9565b6101d1565b60405161009c91906119df565b60405180910390f35b3480156100b157600080fd5b506100ba61091c565b6040516100c7919061174c565b60405180910390f35b3480156100dc57600080fd5b506100e5610940565b6040516100f291906119df565b60405180910390f35b34801561010757600080fd5b50610110610946565b60405161011d91906119df565b60405180910390f35b34801561013257600080fd5b5061014d60048036038101906101489190611445565b61096a565b60405161016097969594939291906119fa565b60405180910390f35b34801561017557600080fd5b5061017e610a81565b60405161018b9190611731565b60405180910390f35b3480156101a057600080fd5b506101bb60048036038101906101b69190611445565b610aa7565b6040516101c891906119df565b60405180910390f35b600083602001353414610219576040517f08c379a0000000000000000000000000000000000000000000000000000000008152600401610210906119bf565b60405180910390fd5b600061027161022786610b0a565b85858080601f016020809104026020016040519081016040528093929190818152602001838380828437600081840152601f19601f82011690508083019250505050505050610bef565b905060008561014001351415610597578460e0016020810190610294919061139c565b73ffffffffffffffffffffffffffffffffffffffff168173ffffffffffffffffffffffffffffffffffffffff1614610301576040517f08c379a00000000000000000000000000000000000000000000000000000000081526004016102f8906118ff565b60405180910390fd5b846060016020810190610314919061139c565b73ffffffffffffffffffffffffffffffffffffffff168560e001602081019061033d919061139c565b73ffffffffffffffffffffffffffffffffffffffff1614801561036557506000856101000135145b1561045d578460a001602081019061037d919061139c565b73ffffffffffffffffffffffffffffffffffffffff1663d204c45e338780604001906103a99190611a70565b6040518463ffffffff1660e01b81526004016103c793929190611767565b600060405180830381600087803b1580156103e157600080fd5b505af11580156103f5573d6000803e3d6000fd5b5050505061045885606001602081019061040f919061139c565b60647f0000000000000000000000000000000000000000000000000000000000000000606461043e9190611be6565b346104499190611b8c565b6104539190611b5b565b610c47565b610592565b8460a0016020810190610470919061139c565b73ffffffffffffffffffffffffffffffffffffffff1663d204c45e3387806040019061049c9190611a70565b6040518463ffffffff1660e01b81526004016104ba93929190611767565b600060405180830381600087803b1580156104d457600080fd5b505af11580156104e8573d6000803e3d6000fd5b5050505061055a8560e0016020810190610502919061139c565b60647f00000000000000000000000000000000000000000000000000000000000000008860c0013560646105369190611be6565b6105409190611be6565b3461054b9190611b8c565b6105559190611b5b565b610c47565b610591856060016020810190610570919061139c565b60648760c00135346105829190611b8c565b61058c9190611b5b565b610c47565b5b6108aa565b846101200160208101906105ab919061139c565b73ffffffffffffffffffffffffffffffffffffffff168173ffffffffffffffffffffffffffffffffffffffff1614610618576040517f08c379a000000000000000000000000000000000000000000000000000000000815260040161060f906118ff565b60405180910390fd5b84606001602081019061062b919061139c565b73ffffffffffffffffffffffffffffffffffffffff168560e0016020810190610654919061139c565b73ffffffffffffffffffffffffffffffffffffffff1614801561067c57506000856101000135145b15610774578460a0016020810190610694919061139c565b73ffffffffffffffffffffffffffffffffffffffff1663d204c45e338780604001906106c09190611a70565b6040518463ffffffff1660e01b81526004016106de93929190611767565b600060405180830381600087803b1580156106f857600080fd5b505af115801561070c573d6000803e3d6000fd5b5050505061076f856060016020810190610726919061139c565b60647f000000000000000000000000000000000000000000000000000000000000000060646107559190611be6565b346107609190611b8c565b61076a9190611b5b565b610c47565b6108a9565b8460a0016020810190610787919061139c565b73ffffffffffffffffffffffffffffffffffffffff1663d204c45e338780604001906107b39190611a70565b6040518463ffffffff1660e01b81526004016107d193929190611767565b600060405180830381600087803b1580156107eb57600080fd5b505af11580156107ff573d6000803e3d6000fd5b505050506108718560e0016020810190610819919061139c565b60647f00000000000000000000000000000000000000000000000000000000000000008860c00135606461084d9190611be6565b6108579190611be6565b346108629190611b8c565b61086c9190611b5b565b610c47565b6108a8856060016020810190610887919061139c565b60648760c00135346108999190611b8c565b6108a39190611b5b565b610c47565b5b5b61090d600260009054906101000a900473ffffffffffffffffffffffffffffffffffffffff1660647f0000000000000000000000000000000000000000000000000000000000000000346108fe9190611b8c565b6109089190611b5b565b610c47565b84600001359150509392505050565b7f000000000000000000000000000000000000000000000000000000000000000081565b60015481565b7f000000000000000000000000000000000000000000000000000000000000000081565b60036020528060005260406000206000915090508060000154908060010160009054906101000a900473ffffffffffffffffffffffffffffffffffffffff16908060020154908060030154908060040160009054906101000a900473ffffffffffffffffffffffffffffffffffffffff16908060040160149054906101000a900460ff16908060050180546109fe90611ccd565b80601f0160208091040260200160405190810160405280929190818152602001828054610a2a90611ccd565b8015610a775780601f10610a4c57610100808354040283529160200191610a77565b820191906000526020600020905b815481529060010190602001808311610a5a57829003601f168201915b5050505050905087565b600260009054906101000a900473ffffffffffffffffffffffffffffffffffffffff1681565b600060647f00000000000000000000000000000000000000000000000000000000000000006064610ad89190611b05565b6003600085815260200190815260200160002060030154610af99190611b8c565b610b039190611b5b565b9050919050565b600080610be47f0e568609d4d781987ddab929e2bb6ed3271759598aed18eabd77d3cf2c500d6d84600001358560200135868060400190610b4b9190611a70565b604051610b599291906116cc565b6040518091039020876060016020810190610b74919061139c565b888060800190610b849190611a70565b604051610b929291906116cc565b60405180910390208960a0016020810190610bad919061139c565b8a60c00135604051602001610bc99897969594939291906117ec565b60405160208183030381529060405280519060200120610d3b565b905080915050919050565b600080610bfc8484610d55565b9050610c3d6040518060400160405280600d81526020017f7369676e6572206f75747075740000000000000000000000000000000000000081525082610d7c565b8091505092915050565b80471015610c8a576040517f08c379a0000000000000000000000000000000000000000000000000000000008152600401610c819061197f565b60405180910390fd5b60008273ffffffffffffffffffffffffffffffffffffffff1682604051610cb09061171c565b60006040518083038185875af1925050503d8060008114610ced576040519150601f19603f3d011682016040523d82523d6000602084013e610cf2565b606091505b5050905080610d36576040517f08c379a0000000000000000000000000000000000000000000000000000000008152600401610d2d9061193f565b60405180910390fd5b505050565b6000610d4e610d48610e18565b83610f32565b9050919050565b6000806000610d648585610f65565b91509150610d7181610fb7565b819250505092915050565b610e148282604051602401610d929291906118af565b6040516020818303038152906040527f319af333000000000000000000000000000000000000000000000000000000007bffffffffffffffffffffffffffffffffffffffffffffffffffffffff19166020820180517bffffffffffffffffffffffffffffffffffffffffffffffffffffffff838183161783525050505061118c565b5050565b60007f000000000000000000000000000000000000000000000000000000000000000073ffffffffffffffffffffffffffffffffffffffff163073ffffffffffffffffffffffffffffffffffffffff16148015610e9457507f000000000000000000000000000000000000000000000000000000000000000046145b15610ec1577f00000000000000000000000000000000000000000000000000000000000000009050610f2f565b610f2c7f00000000000000000000000000000000000000000000000000000000000000007f00000000000000000000000000000000000000000000000000000000000000007f00000000000000000000000000000000000000000000000000000000000000006111b5565b90505b90565b60008282604051602001610f479291906116e5565b60405160208183030381529060405280519060200120905092915050565b600080604183511415610fa75760008060006020860151925060408601519150606086015160001a9050610f9b878285856111ef565b94509450505050610fb0565b60006002915091505b9250929050565b60006004811115610fcb57610fca611d67565b5b816004811115610fde57610fdd611d67565b5b1415610fe957611189565b60016004811115610ffd57610ffc611d67565b5b8160048111156110105761100f611d67565b5b1415611051576040517f08c379a0000000000000000000000000000000000000000000000000000000008152600401611048906118df565b60405180910390fd5b6002600481111561106557611064611d67565b5b81600481111561107857611077611d67565b5b14156110b9576040517f08c379a00000000000000000000000000000000000000000000000000000000081526004016110b09061191f565b60405180910390fd5b600360048111156110cd576110cc611d67565b5b8160048111156110e0576110df611d67565b5b1415611121576040517f08c379a00000000000000000000000000000000000000000000000000000000081526004016111189061195f565b60405180910390fd5b60048081111561113457611133611d67565b5b81600481111561114757611146611d67565b5b1415611188576040517f08c379a000000000000000000000000000000000000000000000000000000000815260040161117f9061199f565b60405180910390fd5b5b50565b60008151905060006a636f6e736f6c652e6c6f679050602083016000808483855afa5050505050565b600083838346306040516020016111d0959493929190611799565b6040516020818303038152906040528051906020012090509392505050565b6000807f7fffffffffffffffffffffffffffffff5d576e7357a4501ddfe92f46681b20a08360001c111561122a5760006003915091506112f3565b601b8560ff16141580156112425750601c8560ff1614155b156112545760006004915091506112f3565b600060018787878760405160008152602001604052604051611279949392919061186a565b6020604051602081039080840390855afa15801561129b573d6000803e3d6000fd5b505050602060405103519050600073ffffffffffffffffffffffffffffffffffffffff168173ffffffffffffffffffffffffffffffffffffffff1614156112ea576000600192509250506112f3565b80600092509250505b94509492505050565b60008135905061130b8161200f565b92915050565b60008083601f84011261132757611326611dca565b5b8235905067ffffffffffffffff81111561134457611343611dc5565b5b6020830191508360018202830111156113605761135f611dde565b5b9250929050565b6000610160828403121561137e5761137d611dd4565b5b81905092915050565b60008135905061139681612026565b92915050565b6000602082840312156113b2576113b1611ded565b5b60006113c0848285016112fc565b91505092915050565b6000806000604084860312156113e2576113e1611ded565b5b600084013567ffffffffffffffff811115611400576113ff611de8565b5b61140c86828701611367565b935050602084013567ffffffffffffffff81111561142d5761142c611de8565b5b61143986828701611311565b92509250509250925092565b60006020828403121561145b5761145a611ded565b5b600061146984828501611387565b91505092915050565b61147b81611c2c565b82525050565b61148a81611c1a565b82525050565b61149981611c3e565b82525050565b6114a881611c4a565b82525050565b6114bf6114ba82611c4a565b611cff565b82525050565b60006114d18385611ade565b93506114de838584611c8b565b82840190509392505050565b60006114f68385611ae9565b9350611503838584611c8b565b61150c83611df2565b840190509392505050565b600061152282611ad3565b61152c8185611ae9565b935061153c818560208601611c9a565b61154581611df2565b840191505092915050565b600061155d601883611ae9565b915061156882611e03565b602082019050919050565b6000611580601183611ae9565b915061158b82611e2c565b602082019050919050565b60006115a3601f83611ae9565b91506115ae82611e55565b602082019050919050565b60006115c6600283611afa565b91506115d182611e7e565b600282019050919050565b60006115e9603a83611ae9565b91506115f482611ea7565b604082019050919050565b600061160c602283611ae9565b915061161782611ef6565b604082019050919050565b600061162f601d83611ae9565b915061163a82611f45565b602082019050919050565b6000611652602283611ae9565b915061165d82611f6e565b604082019050919050565b6000611675600083611ade565b915061168082611fbd565b600082019050919050565b6000611698602383611ae9565b91506116a382611fc0565b604082019050919050565b6116b781611c74565b82525050565b6116c681611c7e565b82525050565b60006116d98284866114c5565b91508190509392505050565b60006116f0826115b9565b91506116fc82856114ae565b60208201915061170c82846114ae565b6020820191508190509392505050565b600061172782611668565b9150819050919050565b60006020820190506117466000830184611481565b92915050565b60006020820190506117616000830184611472565b92915050565b600060408201905061177c6000830186611481565b818103602083015261178f8184866114ea565b9050949350505050565b600060a0820190506117ae600083018861149f565b6117bb602083018761149f565b6117c8604083018661149f565b6117d560608301856116ae565b6117e26080830184611481565b9695505050505050565b600061010082019050611802600083018b61149f565b61180f602083018a6116ae565b61181c60408301896116ae565b611829606083018861149f565b6118366080830187611481565b61184360a083018661149f565b61185060c0830185611481565b61185d60e08301846116ae565b9998505050505050505050565b600060808201905061187f600083018761149f565b61188c60208301866116bd565b611899604083018561149f565b6118a6606083018461149f565b95945050505050565b600060408201905081810360008301526118c98185611517565b90506118d86020830184611481565b9392505050565b600060208201905081810360008301526118f881611550565b9050919050565b6000602082019050818103600083015261191881611573565b9050919050565b6000602082019050818103600083015261193881611596565b9050919050565b60006020820190508181036000830152611958816115dc565b9050919050565b60006020820190508181036000830152611978816115ff565b9050919050565b6000602082019050818103600083015261199881611622565b9050919050565b600060208201905081810360008301526119b881611645565b9050919050565b600060208201905081810360008301526119d88161168b565b9050919050565b60006020820190506119f460008301846116ae565b92915050565b600060e082019050611a0f600083018a6116ae565b611a1c6020830189611481565b611a2960408301886116ae565b611a3660608301876116ae565b611a436080830186611472565b611a5060a0830185611490565b81810360c0830152611a628184611517565b905098975050505050505050565b60008083356001602003843603038112611a8d57611a8c611dd9565b5b80840192508235915067ffffffffffffffff821115611aaf57611aae611dcf565b5b602083019250600182023603831315611acb57611aca611de3565b5b509250929050565b600081519050919050565b600081905092915050565b600082825260208201905092915050565b600081905092915050565b6000611b1082611c74565b9150611b1b83611c74565b9250827fffffffffffffffffffffffffffffffffffffffffffffffffffffffffffffffff03821115611b5057611b4f611d09565b5b828201905092915050565b6000611b6682611c74565b9150611b7183611c74565b925082611b8157611b80611d38565b5b828204905092915050565b6000611b9782611c74565b9150611ba283611c74565b9250817fffffffffffffffffffffffffffffffffffffffffffffffffffffffffffffffff0483118215151615611bdb57611bda611d09565b5b828202905092915050565b6000611bf182611c74565b9150611bfc83611c74565b925082821015611c0f57611c0e611d09565b5b828203905092915050565b6000611c2582611c54565b9050919050565b6000611c3782611c54565b9050919050565b60008115159050919050565b6000819050919050565b600073ffffffffffffffffffffffffffffffffffffffff82169050919050565b6000819050919050565b600060ff82169050919050565b82818337600083830152505050565b60005b83811015611cb8578082015181840152602081019050611c9d565b83811115611cc7576000848401525b50505050565b60006002820490506001821680611ce557607f821691505b60208210811415611cf957611cf8611d96565b5b50919050565b6000819050919050565b7f4e487b7100000000000000000000000000000000000000000000000000000000600052601160045260246000fd5b7f4e487b7100000000000000000000000000000000000000000000000000000000600052601260045260246000fd5b7f4e487b7100000000000000000000000000000000000000000000000000000000600052602160045260246000fd5b7f4e487b7100000000000000000000000000000000000000000000000000000000600052602260045260246000fd5b600080fd5b600080fd5b600080fd5b600080fd5b600080fd5b600080fd5b600080fd5b600080fd5b600080fd5b6000601f19601f8301169050919050565b7f45434453413a20696e76616c6964207369676e61747572650000000000000000600082015250565b7f696e76616c6964207369676e6174757265000000000000000000000000000000600082015250565b7f45434453413a20696e76616c6964207369676e6174757265206c656e67746800600082015250565b7f1901000000000000000000000000000000000000000000000000000000000000600082015250565b7f416464726573733a20756e61626c6520746f2073656e642076616c75652c207260008201527f6563697069656e74206d61792068617665207265766572746564000000000000602082015250565b7f45434453413a20696e76616c6964207369676e6174757265202773272076616c60008201527f7565000000000000000000000000000000000000000000000000000000000000602082015250565b7f416464726573733a20696e73756666696369656e742062616c616e6365000000600082015250565b7f45434453413a20696e76616c6964207369676e6174757265202776272076616c60008201527f7565000000000000000000000000000000000000000000000000000000000000602082015250565b50565b7f53696d6f6e4465764e46543a204d6573736167652076616c756520213d20707260008201527f6963650000000000000000000000000000000000000000000000000000000000602082015250565b61201881611c1a565b811461202357600080fd5b50565b61202f81611c74565b811461203a57600080fd5b5056fea26469706673582212200734b0edaadab2e5e8f71bf128e278bfde40a4e1d1a5f8896cce2b1da98ac54564736f6c63430008070033",
  "linkReferences": {},
  "deployedLinkReferences": {}
}