{
  "_format": "hh-sol-artifact-1",
  "contractName": "NFTCollection1",
  "sourceName": "contracts/NFTCollection1.sol",
  "abi": [
    {
      "inputs": [
        {
          "internalType": "address",
          "name": "marketplace_",
          "type": "address"
        }
      ],
      "stateMutability": "nonpayable",
      "type": "constructor"
    },
    {
      "anonymous": false,
      "inputs": [
        {
          "indexed": true,
          "internalType": "address",
          "name": "owner",
          "type": "address"
        },
        {
          "indexed": true,
          "internalType": "address",
          "name": "approved",
          "type": "address"
        },
        {
          "indexed": true,
          "internalType": "uint256",
          "name": "tokenId",
          "type": "uint256"
        }
      ],
      "name": "Approval",
      "type": "event"
    },
    {
      "anonymous": false,
      "inputs": [
        {
          "indexed": true,
          "internalType": "address",
          "name": "owner",
          "type": "address"
        },
        {
          "indexed": true,
          "internalType": "address",
          "name": "operator",
          "type": "address"
        },
        {
          "indexed": false,
          "internalType": "bool",
          "name": "approved",
          "type": "bool"
        }
      ],
      "name": "ApprovalForAll",
      "type": "event"
    },
    {
      "anonymous": false,
      "inputs": [
        {
          "indexed": true,
          "internalType": "bytes32",
          "name": "role",
          "type": "bytes32"
        },
        {
          "indexed": true,
          "internalType": "bytes32",
          "name": "previousAdminRole",
          "type": "bytes32"
        },
        {
          "indexed": true,
          "internalType": "bytes32",
          "name": "newAdminRole",
          "type": "bytes32"
        }
      ],
      "name": "RoleAdminChanged",
      "type": "event"
    },
    {
      "anonymous": false,
      "inputs": [
        {
          "indexed": true,
          "internalType": "bytes32",
          "name": "role",
          "type": "bytes32"
        },
        {
          "indexed": true,
          "internalType": "address",
          "name": "account",
          "type": "address"
        },
        {
          "indexed": true,
          "internalType": "address",
          "name": "sender",
          "type": "address"
        }
      ],
      "name": "RoleGranted",
      "type": "event"
    },
    {
      "anonymous": false,
      "inputs": [
        {
          "indexed": true,
          "internalType": "bytes32",
          "name": "role",
          "type": "bytes32"
        },
        {
          "indexed": true,
          "internalType": "address",
          "name": "account",
          "type": "address"
        },
        {
          "indexed": true,
          "internalType": "address",
          "name": "sender",
          "type": "address"
        }
      ],
      "name": "RoleRevoked",
      "type": "event"
    },
    {
      "anonymous": false,
      "inputs": [
        {
          "indexed": true,
          "internalType": "address",
          "name": "from",
          "type": "address"
        },
        {
          "indexed": true,
          "internalType": "address",
          "name": "to",
          "type": "address"
        },
        {
          "indexed": true,
          "internalType": "uint256",
          "name": "tokenId",
          "type": "uint256"
        }
      ],
      "name": "Transfer",
      "type": "event"
    },
    {
      "inputs": [],
      "name": "DEFAULT_ADMIN_ROLE",
      "outputs": [
        {
          "internalType": "bytes32",
          "name": "",
          "type": "bytes32"
        }
      ],
      "stateMutability": "view",
      "type": "function"
    },
    {
      "inputs": [],
      "name": "MINTER_ROLE",
      "outputs": [
        {
          "internalType": "bytes32",
          "name": "",
          "type": "bytes32"
        }
      ],
      "stateMutability": "view",
      "type": "function"
    },
    {
      "inputs": [],
      "name": "TRANSFER_ROLE",
      "outputs": [
        {
          "internalType": "bytes32",
          "name": "",
          "type": "bytes32"
        }
      ],
      "stateMutability": "view",
      "type": "function"
    },
    {
      "inputs": [],
      "name": "_tokenIdCounter",
      "outputs": [
        {
          "internalType": "uint256",
          "name": "_value",
          "type": "uint256"
        }
      ],
      "stateMutability": "view",
      "type": "function"
    },
    {
      "inputs": [
        {
          "internalType": "address",
          "name": "to",
          "type": "address"
        },
        {
          "internalType": "uint256",
          "name": "tokenId",
          "type": "uint256"
        }
      ],
      "name": "approve",
      "outputs": [],
      "stateMutability": "nonpayable",
      "type": "function"
    },
    {
      "inputs": [
        {
          "internalType": "address",
          "name": "owner",
          "type": "address"
        }
      ],
      "name": "balanceOf",
      "outputs": [
        {
          "internalType": "uint256",
          "name": "",
          "type": "uint256"
        }
      ],
      "stateMutability": "view",
      "type": "function"
    },
    {
      "inputs": [
        {
          "internalType": "uint256",
          "name": "tokenId",
          "type": "uint256"
        }
      ],
      "name": "getApproved",
      "outputs": [
        {
          "internalType": "address",
          "name": "",
          "type": "address"
        }
      ],
      "stateMutability": "view",
      "type": "function"
    },
    {
      "inputs": [
        {
          "internalType": "bytes32",
          "name": "role",
          "type": "bytes32"
        }
      ],
      "name": "getRoleAdmin",
      "outputs": [
        {
          "internalType": "bytes32",
          "name": "",
          "type": "bytes32"
        }
      ],
      "stateMutability": "view",
      "type": "function"
    },
    {
      "inputs": [
        {
          "internalType": "bytes32",
          "name": "role",
          "type": "bytes32"
        },
        {
          "internalType": "address",
          "name": "account",
          "type": "address"
        }
      ],
      "name": "grantRole",
      "outputs": [],
      "stateMutability": "nonpayable",
      "type": "function"
    },
    {
      "inputs": [
        {
          "internalType": "bytes32",
          "name": "role",
          "type": "bytes32"
        },
        {
          "internalType": "address",
          "name": "account",
          "type": "address"
        }
      ],
      "name": "hasRole",
      "outputs": [
        {
          "internalType": "bool",
          "name": "",
          "type": "bool"
        }
      ],
      "stateMutability": "view",
      "type": "function"
    },
    {
      "inputs": [
        {
          "internalType": "address",
          "name": "owner",
          "type": "address"
        },
        {
          "internalType": "address",
          "name": "operator",
          "type": "address"
        }
      ],
      "name": "isApprovedForAll",
      "outputs": [
        {
          "internalType": "bool",
          "name": "",
          "type": "bool"
        }
      ],
      "stateMutability": "view",
      "type": "function"
    },
    {
      "inputs": [],
      "name": "name",
      "outputs": [
        {
          "internalType": "string",
          "name": "",
          "type": "string"
        }
      ],
      "stateMutability": "view",
      "type": "function"
    },
    {
      "inputs": [
        {
          "internalType": "uint256",
          "name": "tokenId",
          "type": "uint256"
        }
      ],
      "name": "ownerOf",
      "outputs": [
        {
          "internalType": "address",
          "name": "",
          "type": "address"
        }
      ],
      "stateMutability": "view",
      "type": "function"
    },
    {
      "inputs": [
        {
          "internalType": "bytes32",
          "name": "role",
          "type": "bytes32"
        },
        {
          "internalType": "address",
          "name": "account",
          "type": "address"
        }
      ],
      "name": "renounceRole",
      "outputs": [],
      "stateMutability": "nonpayable",
      "type": "function"
    },
    {
      "inputs": [
        {
          "internalType": "bytes32",
          "name": "role",
          "type": "bytes32"
        },
        {
          "internalType": "address",
          "name": "account",
          "type": "address"
        }
      ],
      "name": "revokeRole",
      "outputs": [],
      "stateMutability": "nonpayable",
      "type": "function"
    },
    {
      "inputs": [
        {
          "internalType": "address",
          "name": "to",
          "type": "address"
        },
        {
          "internalType": "string",
          "name": "uri",
          "type": "string"
        }
      ],
      "name": "safeMint",
      "outputs": [],
      "stateMutability": "nonpayable",
      "type": "function"
    },
    {
      "inputs": [
        {
          "internalType": "address",
          "name": "from",
          "type": "address"
        },
        {
          "internalType": "address",
          "name": "to",
          "type": "address"
        },
        {
          "internalType": "uint256",
          "name": "tokenId",
          "type": "uint256"
        }
      ],
      "name": "safeTransferFrom",
      "outputs": [],
      "stateMutability": "nonpayable",
      "type": "function"
    },
    {
      "inputs": [
        {
          "internalType": "address",
          "name": "from",
          "type": "address"
        },
        {
          "internalType": "address",
          "name": "to",
          "type": "address"
        },
        {
          "internalType": "uint256",
          "name": "tokenId",
          "type": "uint256"
        },
        {
          "internalType": "bytes",
          "name": "_data",
          "type": "bytes"
        }
      ],
      "name": "safeTransferFrom",
      "outputs": [],
      "stateMutability": "nonpayable",
      "type": "function"
    },
    {
      "inputs": [
        {
          "internalType": "address",
          "name": "operator",
          "type": "address"
        },
        {
          "internalType": "bool",
          "name": "approved",
          "type": "bool"
        }
      ],
      "name": "setApprovalForAll",
      "outputs": [],
      "stateMutability": "nonpayable",
      "type": "function"
    },
    {
      "inputs": [
        {
          "internalType": "bytes4",
          "name": "interfaceId",
          "type": "bytes4"
        }
      ],
      "name": "supportsInterface",
      "outputs": [
        {
          "internalType": "bool",
          "name": "",
          "type": "bool"
        }
      ],
      "stateMutability": "view",
      "type": "function"
    },
    {
      "inputs": [],
      "name": "symbol",
      "outputs": [
        {
          "internalType": "string",
          "name": "",
          "type": "string"
        }
      ],
      "stateMutability": "view",
      "type": "function"
    },
    {
      "inputs": [
        {
          "internalType": "uint256",
          "name": "tokenId",
          "type": "uint256"
        }
      ],
      "name": "tokenURI",
      "outputs": [
        {
          "internalType": "string",
          "name": "",
          "type": "string"
        }
      ],
      "stateMutability": "view",
      "type": "function"
    },
    {
      "inputs": [
        {
          "internalType": "address",
          "name": "from",
          "type": "address"
        },
        {
          "internalType": "address",
          "name": "to",
          "type": "address"
        },
        {
          "internalType": "uint256",
          "name": "tokenId",
          "type": "uint256"
        }
      ],
      "name": "transferFrom",
      "outputs": [],
      "stateMutability": "nonpayable",
      "type": "function"
    }
  ],
  "bytecode": "0x60806040523480156200001157600080fd5b5060405162003e4638038062003e468339818101604052810190620000379190620003bb565b6040518060400160405280600e81526020017f4e4654436f6c6c656374696f6e310000000000000000000000000000000000008152506040518060400160405280600481526020017f4e465431000000000000000000000000000000000000000000000000000000008152508282828160009080519060200190620000be929190620002f4565b508060019080519060200190620000d7929190620002f4565b505050620000ef6000801b336200018f60201b60201c565b620001217f9f2df0fed2c77648de5860a4cc508cd0818c85b8b8a1ab4ceeef8d981c8956a6336200018f60201b60201c565b620001537f9f2df0fed2c77648de5860a4cc508cd0818c85b8b8a1ab4ceeef8d981c8956a6826200018f60201b60201c565b620001857f8502233096d909befbda0999bb8ea2f3a6be3c138b9fbf003752a4c8bce86f6c826200018f60201b60201c565b505050506200049a565b620001a182826200028160201b60201c565b6200027d5760016007600084815260200190815260200160002060000160008373ffffffffffffffffffffffffffffffffffffffff1673ffffffffffffffffffffffffffffffffffffffff16815260200190815260200160002060006101000a81548160ff02191690831515021790555062000222620002ec60201b60201c565b73ffffffffffffffffffffffffffffffffffffffff168173ffffffffffffffffffffffffffffffffffffffff16837f2f8788117e7eff1d82e926ec794901d17c78024a50270940304540a733656f0d60405160405180910390a45b5050565b60006007600084815260200190815260200160002060000160008373ffffffffffffffffffffffffffffffffffffffff1673ffffffffffffffffffffffffffffffffffffffff16815260200190815260200160002060009054906101000a900460ff16905092915050565b600033905090565b82805462000302906200041b565b90600052602060002090601f01602090048101928262000326576000855562000372565b82601f106200034157805160ff191683800117855562000372565b8280016001018555821562000372579182015b828111156200037157825182559160200191906001019062000354565b5b50905062000381919062000385565b5090565b5b80821115620003a057600081600090555060010162000386565b5090565b600081519050620003b58162000480565b92915050565b600060208284031215620003ce57600080fd5b6000620003de84828501620003a4565b91505092915050565b6000620003f482620003fb565b9050919050565b600073ffffffffffffffffffffffffffffffffffffffff82169050919050565b600060028204905060018216806200043457607f821691505b602082108114156200044b576200044a62000451565b5b50919050565b7f4e487b7100000000000000000000000000000000000000000000000000000000600052602260045260246000fd5b6200048b81620003e7565b81146200049757600080fd5b50565b61399c80620004aa6000396000f3fe608060405234801561001057600080fd5b506004361061014d5760003560e01c806370a08231116100c3578063b88d4fde1161007c578063b88d4fde146103b0578063c87b56dd146103cc578063d204c45e146103fc578063d539139314610418578063d547741f14610436578063e985e9c5146104525761014d565b806370a08231146102da57806384c4bd4b1461030a57806391d148541461032857806395d89b4114610358578063a217fddf14610376578063a22cb465146103945761014d565b806323b872dd1161011557806323b872dd1461020a578063248a9ca3146102265780632f2ff15d1461025657806336568abe1461027257806342842e0e1461028e5780636352211e146102aa5761014d565b806301ffc9a71461015257806306fdde0314610182578063081812fc146101a0578063095ea7b3146101d0578063206b60f9146101ec575b600080fd5b61016c60048036038101906101679190612718565b610482565b6040516101799190612c16565b60405180910390f35b61018a610494565b6040516101979190612c4c565b60405180910390f35b6101ba60048036038101906101b5919061276a565b610526565b6040516101c79190612baf565b60405180910390f35b6101ea60048036038101906101e59190612677565b6105ab565b005b6101f46106c3565b6040516102019190612c31565b60405180910390f35b610224600480360381019061021f919061251d565b6106e7565b005b610240600480360381019061023b91906126b3565b610747565b60405161024d9190612c31565b60405180910390f35b610270600480360381019061026b91906126dc565b610767565b005b61028c600480360381019061028791906126dc565b610788565b005b6102a860048036038101906102a3919061251d565b61080b565b005b6102c460048036038101906102bf919061276a565b6108b3565b6040516102d19190612baf565b60405180910390f35b6102f460048036038101906102ef91906124b8565b610965565b6040516103019190612ece565b60405180910390f35b610312610a1d565b60405161031f9190612ece565b60405180910390f35b610342600480360381019061033d91906126dc565b610a29565b60405161034f9190612c16565b60405180910390f35b610360610a94565b60405161036d9190612c4c565b60405180910390f35b61037e610b26565b60405161038b9190612c31565b60405180910390f35b6103ae60048036038101906103a991906125e7565b610b2d565b005b6103ca60048036038101906103c5919061256c565b610b43565b005b6103e660048036038101906103e1919061276a565b610ba5565b6040516103f39190612c4c565b60405180910390f35b61041660048036038101906104119190612623565b610bb7565b005b610420610c13565b60405161042d9190612c31565b60405180910390f35b610450600480360381019061044b91906126dc565b610c37565b005b61046c600480360381019061046791906124e1565b610c58565b6040516104799190612c16565b60405180910390f35b600061048d82610cec565b9050919050565b6060600080546104a3906131b2565b80601f01602080910402602001604051908101604052809291908181526020018280546104cf906131b2565b801561051c5780601f106104f15761010080835404028352916020019161051c565b820191906000526020600020905b8154815290600101906020018083116104ff57829003601f168201915b5050505050905090565b600061053182610d66565b610570576040517f08c379a000000000000000000000000000000000000000000000000000000000815260040161056790612e0e565b60405180910390fd5b6004600083815260200190815260200160002060009054906101000a900473ffffffffffffffffffffffffffffffffffffffff169050919050565b60006105b6826108b3565b90508073ffffffffffffffffffffffffffffffffffffffff168373ffffffffffffffffffffffffffffffffffffffff161415610627576040517f08c379a000000000000000000000000000000000000000000000000000000000815260040161061e90612e4e565b60405180910390fd5b8073ffffffffffffffffffffffffffffffffffffffff16610646610dd2565b73ffffffffffffffffffffffffffffffffffffffff16148061067557506106748161066f610dd2565b610c58565b5b6106b4576040517f08c379a00000000000000000000000000000000000000000000000000000000081526004016106ab90612d4e565b60405180910390fd5b6106be8383610dda565b505050565b7f8502233096d909befbda0999bb8ea2f3a6be3c138b9fbf003752a4c8bce86f6c81565b6106f86106f2610dd2565b82610e93565b610737576040517f08c379a000000000000000000000000000000000000000000000000000000000815260040161072e90612e6e565b60405180910390fd5b610742838383610f71565b505050565b600060076000838152602001908152602001600020600101549050919050565b61077082610747565b610779816111d8565b61078383836111ec565b505050565b610790610dd2565b73ffffffffffffffffffffffffffffffffffffffff168173ffffffffffffffffffffffffffffffffffffffff16146107fd576040517f08c379a00000000000000000000000000000000000000000000000000000000081526004016107f490612eae565b60405180910390fd5b61080782826112cd565b5050565b61081c610816610dd2565b82610e93565b8061085457506108537f8502233096d909befbda0999bb8ea2f3a6be3c138b9fbf003752a4c8bce86f6c61084e610dd2565b610a29565b5b610893576040517f08c379a000000000000000000000000000000000000000000000000000000000815260040161088a90612e8e565b60405180910390fd5b6108ae838383604051806020016040528060008152506113af565b505050565b6000806002600084815260200190815260200160002060009054906101000a900473ffffffffffffffffffffffffffffffffffffffff169050600073ffffffffffffffffffffffffffffffffffffffff168173ffffffffffffffffffffffffffffffffffffffff16141561095c576040517f08c379a000000000000000000000000000000000000000000000000000000000815260040161095390612d8e565b60405180910390fd5b80915050919050565b60008073ffffffffffffffffffffffffffffffffffffffff168273ffffffffffffffffffffffffffffffffffffffff1614156109d6576040517f08c379a00000000000000000000000000000000000000000000000000000000081526004016109cd90612d6e565b60405180910390fd5b600360008373ffffffffffffffffffffffffffffffffffffffff1673ffffffffffffffffffffffffffffffffffffffff168152602001908152602001600020549050919050565b60088060000154905081565b60006007600084815260200190815260200160002060000160008373ffffffffffffffffffffffffffffffffffffffff1673ffffffffffffffffffffffffffffffffffffffff16815260200190815260200160002060009054906101000a900460ff16905092915050565b606060018054610aa3906131b2565b80601f0160208091040260200160405190810160405280929190818152602001828054610acf906131b2565b8015610b1c5780601f10610af157610100808354040283529160200191610b1c565b820191906000526020600020905b815481529060010190602001808311610aff57829003601f168201915b5050505050905090565b6000801b81565b610b3f610b38610dd2565b838361140b565b5050565b610b54610b4e610dd2565b83610e93565b610b93576040517f08c379a0000000000000000000000000000000000000000000000000000000008152600401610b8a90612e6e565b60405180910390fd5b610b9f848484846113af565b50505050565b6060610bb082611578565b9050919050565b7f9f2df0fed2c77648de5860a4cc508cd0818c85b8b8a1ab4ceeef8d981c8956a6610be1816111d8565b6000610bed60086116ca565b9050610bf960086116d8565b610c0384826116ee565b610c0d818461170c565b50505050565b7f9f2df0fed2c77648de5860a4cc508cd0818c85b8b8a1ab4ceeef8d981c8956a681565b610c4082610747565b610c49816111d8565b610c5383836112cd565b505050565b6000600560008473ffffffffffffffffffffffffffffffffffffffff1673ffffffffffffffffffffffffffffffffffffffff16815260200190815260200160002060008373ffffffffffffffffffffffffffffffffffffffff1673ffffffffffffffffffffffffffffffffffffffff16815260200190815260200160002060009054906101000a900460ff16905092915050565b60007f7965db0b000000000000000000000000000000000000000000000000000000007bffffffffffffffffffffffffffffffffffffffffffffffffffffffff1916827bffffffffffffffffffffffffffffffffffffffffffffffffffffffff19161480610d5f5750610d5e82611780565b5b9050919050565b60008073ffffffffffffffffffffffffffffffffffffffff166002600084815260200190815260200160002060009054906101000a900473ffffffffffffffffffffffffffffffffffffffff1673ffffffffffffffffffffffffffffffffffffffff1614159050919050565b600033905090565b816004600083815260200190815260200160002060006101000a81548173ffffffffffffffffffffffffffffffffffffffff021916908373ffffffffffffffffffffffffffffffffffffffff160217905550808273ffffffffffffffffffffffffffffffffffffffff16610e4d836108b3565b73ffffffffffffffffffffffffffffffffffffffff167f8c5be1e5ebec7d5bd14f71427d1e84f3dd0314c0f7b2291e5b200ac8c7c3b92560405160405180910390a45050565b6000610e9e82610d66565b610edd576040517f08c379a0000000000000000000000000000000000000000000000000000000008152600401610ed490612d2e565b60405180910390fd5b6000610ee8836108b3565b90508073ffffffffffffffffffffffffffffffffffffffff168473ffffffffffffffffffffffffffffffffffffffff161480610f2a5750610f298185610c58565b5b80610f6857508373ffffffffffffffffffffffffffffffffffffffff16610f5084610526565b73ffffffffffffffffffffffffffffffffffffffff16145b91505092915050565b8273ffffffffffffffffffffffffffffffffffffffff16610f91826108b3565b73ffffffffffffffffffffffffffffffffffffffff1614610fe7576040517f08c379a0000000000000000000000000000000000000000000000000000000008152600401610fde90612cae565b60405180910390fd5b600073ffffffffffffffffffffffffffffffffffffffff168273ffffffffffffffffffffffffffffffffffffffff161415611057576040517f08c379a000000000000000000000000000000000000000000000000000000000815260040161104e90612cee565b60405180910390fd5b611062838383611862565b61106d600082610dda565b6001600360008573ffffffffffffffffffffffffffffffffffffffff1673ffffffffffffffffffffffffffffffffffffffff16815260200190815260200160002060008282546110bd9190613094565b925050819055506001600360008473ffffffffffffffffffffffffffffffffffffffff1673ffffffffffffffffffffffffffffffffffffffff16815260200190815260200160002060008282546111149190612fb3565b92505081905550816002600083815260200190815260200160002060006101000a81548173ffffffffffffffffffffffffffffffffffffffff021916908373ffffffffffffffffffffffffffffffffffffffff160217905550808273ffffffffffffffffffffffffffffffffffffffff168473ffffffffffffffffffffffffffffffffffffffff167fddf252ad1be2c89b69c2b068fc378daa952ba7f163c4a11628f55a4df523b3ef60405160405180910390a46111d3838383611867565b505050565b6111e9816111e4610dd2565b61186c565b50565b6111f68282610a29565b6112c95760016007600084815260200190815260200160002060000160008373ffffffffffffffffffffffffffffffffffffffff1673ffffffffffffffffffffffffffffffffffffffff16815260200190815260200160002060006101000a81548160ff02191690831515021790555061126e610dd2565b73ffffffffffffffffffffffffffffffffffffffff168173ffffffffffffffffffffffffffffffffffffffff16837f2f8788117e7eff1d82e926ec794901d17c78024a50270940304540a733656f0d60405160405180910390a45b5050565b6112d78282610a29565b156113ab5760006007600084815260200190815260200160002060000160008373ffffffffffffffffffffffffffffffffffffffff1673ffffffffffffffffffffffffffffffffffffffff16815260200190815260200160002060006101000a81548160ff021916908315150217905550611350610dd2565b73ffffffffffffffffffffffffffffffffffffffff168173ffffffffffffffffffffffffffffffffffffffff16837ff6391f5c32d9c69d2a47ea670b442974b53935d1edc7fd64eb21e047a839171b60405160405180910390a45b5050565b6113ba848484610f71565b6113c684848484611909565b611405576040517f08c379a00000000000000000000000000000000000000000000000000000000081526004016113fc90612c8e565b60405180910390fd5b50505050565b8173ffffffffffffffffffffffffffffffffffffffff168373ffffffffffffffffffffffffffffffffffffffff16141561147a576040517f08c379a000000000000000000000000000000000000000000000000000000000815260040161147190612d0e565b60405180910390fd5b80600560008573ffffffffffffffffffffffffffffffffffffffff1673ffffffffffffffffffffffffffffffffffffffff16815260200190815260200160002060008473ffffffffffffffffffffffffffffffffffffffff1673ffffffffffffffffffffffffffffffffffffffff16815260200190815260200160002060006101000a81548160ff0219169083151502179055508173ffffffffffffffffffffffffffffffffffffffff168373ffffffffffffffffffffffffffffffffffffffff167f17307eab39ab6107e8899845ad3d59bd9653f200f220920489ca2b5937696c318360405161156b9190612c16565b60405180910390a3505050565b606061158382610d66565b6115c2576040517f08c379a00000000000000000000000000000000000000000000000000000000081526004016115b990612dee565b60405180910390fd5b60006006600084815260200190815260200160002080546115e2906131b2565b80601f016020809104026020016040519081016040528092919081815260200182805461160e906131b2565b801561165b5780601f106116305761010080835404028352916020019161165b565b820191906000526020600020905b81548152906001019060200180831161163e57829003601f168201915b50505050509050600061166c611aa0565b90506000815114156116825781925050506116c5565b6000825111156116b757808260405160200161169f929190612b51565b604051602081830303815290604052925050506116c5565b6116c084611ab7565b925050505b919050565b600081600001549050919050565b6001816000016000828254019250508190555050565b611708828260405180602001604052806000815250611b5e565b5050565b61171582610d66565b611754576040517f08c379a000000000000000000000000000000000000000000000000000000000815260040161174b90612dae565b60405180910390fd5b8060066000848152602001908152602001600020908051906020019061177b9291906122c7565b505050565b60007f80ac58cd000000000000000000000000000000000000000000000000000000007bffffffffffffffffffffffffffffffffffffffffffffffffffffffff1916827bffffffffffffffffffffffffffffffffffffffffffffffffffffffff1916148061184b57507f5b5e139f000000000000000000000000000000000000000000000000000000007bffffffffffffffffffffffffffffffffffffffffffffffffffffffff1916827bffffffffffffffffffffffffffffffffffffffffffffffffffffffff1916145b8061185b575061185a82611bb9565b5b9050919050565b505050565b505050565b6118768282610a29565b6119055761189b8173ffffffffffffffffffffffffffffffffffffffff166014611c23565b6118a98360001c6020611c23565b6040516020016118ba929190612b75565b6040516020818303038152906040526040517f08c379a00000000000000000000000000000000000000000000000000000000081526004016118fc9190612c4c565b60405180910390fd5b5050565b600061192a8473ffffffffffffffffffffffffffffffffffffffff16611f1d565b15611a93578373ffffffffffffffffffffffffffffffffffffffff1663150b7a02611953610dd2565b8786866040518563ffffffff1660e01b81526004016119759493929190612bca565b602060405180830381600087803b15801561198f57600080fd5b505af19250505080156119c057506040513d601f19601f820116820180604052508101906119bd9190612741565b60015b611a43573d80600081146119f0576040519150601f19603f3d011682016040523d82523d6000602084013e6119f5565b606091505b50600081511415611a3b576040517f08c379a0000000000000000000000000000000000000000000000000000000008152600401611a3290612c8e565b60405180910390fd5b805181602001fd5b63150b7a0260e01b7bffffffffffffffffffffffffffffffffffffffffffffffffffffffff1916817bffffffffffffffffffffffffffffffffffffffffffffffffffffffff191614915050611a98565b600190505b949350505050565b606060405180602001604052806000815250905090565b6060611ac282610d66565b611b01576040517f08c379a0000000000000000000000000000000000000000000000000000000008152600401611af890612e2e565b60405180910390fd5b6000611b0b611aa0565b90506000815111611b2b5760405180602001604052806000815250611b56565b80611b3584611f40565b604051602001611b46929190612b51565b6040516020818303038152906040525b915050919050565b611b6883836120ed565b611b756000848484611909565b611bb4576040517f08c379a0000000000000000000000000000000000000000000000000000000008152600401611bab90612c8e565b60405180910390fd5b505050565b60007f01ffc9a7000000000000000000000000000000000000000000000000000000007bffffffffffffffffffffffffffffffffffffffffffffffffffffffff1916827bffffffffffffffffffffffffffffffffffffffffffffffffffffffff1916149050919050565b606060006002836002611c36919061303a565b611c409190612fb3565b67ffffffffffffffff811115611c7f577f4e487b7100000000000000000000000000000000000000000000000000000000600052604160045260246000fd5b6040519080825280601f01601f191660200182016040528015611cb15781602001600182028036833780820191505090505b5090507f300000000000000000000000000000000000000000000000000000000000000081600081518110611d0f577f4e487b7100000000000000000000000000000000000000000000000000000000600052603260045260246000fd5b60200101907effffffffffffffffffffffffffffffffffffffffffffffffffffffffffffff1916908160001a9053507f780000000000000000000000000000000000000000000000000000000000000081600181518110611d99577f4e487b7100000000000000000000000000000000000000000000000000000000600052603260045260246000fd5b60200101907effffffffffffffffffffffffffffffffffffffffffffffffffffffffffffff1916908160001a90535060006001846002611dd9919061303a565b611de39190612fb3565b90505b6001811115611ecf577f3031323334353637383961626364656600000000000000000000000000000000600f861660108110611e4b577f4e487b7100000000000000000000000000000000000000000000000000000000600052603260045260246000fd5b1a60f81b828281518110611e88577f4e487b7100000000000000000000000000000000000000000000000000000000600052603260045260246000fd5b60200101907effffffffffffffffffffffffffffffffffffffffffffffffffffffffffffff1916908160001a905350600485901c945080611ec890613188565b9050611de6565b5060008414611f13576040517f08c379a0000000000000000000000000000000000000000000000000000000008152600401611f0a90612c6e565b60405180910390fd5b8091505092915050565b6000808273ffffffffffffffffffffffffffffffffffffffff163b119050919050565b60606000821415611f88576040518060400160405280600181526020017f300000000000000000000000000000000000000000000000000000000000000081525090506120e8565b600082905060005b60008214611fba578080611fa390613215565b915050600a82611fb39190613009565b9150611f90565b60008167ffffffffffffffff811115611ffc577f4e487b7100000000000000000000000000000000000000000000000000000000600052604160045260246000fd5b6040519080825280601f01601f19166020018201604052801561202e5781602001600182028036833780820191505090505b5090505b600085146120e1576001826120479190613094565b9150600a85612056919061325e565b60306120629190612fb3565b60f81b81838151811061209e577f4e487b7100000000000000000000000000000000000000000000000000000000600052603260045260246000fd5b60200101907effffffffffffffffffffffffffffffffffffffffffffffffffffffffffffff1916908160001a905350600a856120da9190613009565b9450612032565b8093505050505b919050565b600073ffffffffffffffffffffffffffffffffffffffff168273ffffffffffffffffffffffffffffffffffffffff16141561215d576040517f08c379a000000000000000000000000000000000000000000000000000000000815260040161215490612dce565b60405180910390fd5b61216681610d66565b156121a6576040517f08c379a000000000000000000000000000000000000000000000000000000000815260040161219d90612cce565b60405180910390fd5b6121b260008383611862565b6001600360008473ffffffffffffffffffffffffffffffffffffffff1673ffffffffffffffffffffffffffffffffffffffff16815260200190815260200160002060008282546122029190612fb3565b92505081905550816002600083815260200190815260200160002060006101000a81548173ffffffffffffffffffffffffffffffffffffffff021916908373ffffffffffffffffffffffffffffffffffffffff160217905550808273ffffffffffffffffffffffffffffffffffffffff16600073ffffffffffffffffffffffffffffffffffffffff167fddf252ad1be2c89b69c2b068fc378daa952ba7f163c4a11628f55a4df523b3ef60405160405180910390a46122c360008383611867565b5050565b8280546122d3906131b2565b90600052602060002090601f0160209004810192826122f5576000855561233c565b82601f1061230e57805160ff191683800117855561233c565b8280016001018555821561233c579182015b8281111561233b578251825591602001919060010190612320565b5b509050612349919061234d565b5090565b5b8082111561236657600081600090555060010161234e565b5090565b600061237d61237884612f0e565b612ee9565b90508281526020810184848401111561239557600080fd5b6123a0848285613146565b509392505050565b60006123bb6123b684612f3f565b612ee9565b9050828152602081018484840111156123d357600080fd5b6123de848285613146565b509392505050565b6000813590506123f5816138f3565b92915050565b60008135905061240a8161390a565b92915050565b60008135905061241f81613921565b92915050565b60008135905061243481613938565b92915050565b60008151905061244981613938565b92915050565b600082601f83011261246057600080fd5b813561247084826020860161236a565b91505092915050565b600082601f83011261248a57600080fd5b813561249a8482602086016123a8565b91505092915050565b6000813590506124b28161394f565b92915050565b6000602082840312156124ca57600080fd5b60006124d8848285016123e6565b91505092915050565b600080604083850312156124f457600080fd5b6000612502858286016123e6565b9250506020612513858286016123e6565b9150509250929050565b60008060006060848603121561253257600080fd5b6000612540868287016123e6565b9350506020612551868287016123e6565b9250506040612562868287016124a3565b9150509250925092565b6000806000806080858703121561258257600080fd5b6000612590878288016123e6565b94505060206125a1878288016123e6565b93505060406125b2878288016124a3565b925050606085013567ffffffffffffffff8111156125cf57600080fd5b6125db8782880161244f565b91505092959194509250565b600080604083850312156125fa57600080fd5b6000612608858286016123e6565b9250506020612619858286016123fb565b9150509250929050565b6000806040838503121561263657600080fd5b6000612644858286016123e6565b925050602083013567ffffffffffffffff81111561266157600080fd5b61266d85828601612479565b9150509250929050565b6000806040838503121561268a57600080fd5b6000612698858286016123e6565b92505060206126a9858286016124a3565b9150509250929050565b6000602082840312156126c557600080fd5b60006126d384828501612410565b91505092915050565b600080604083850312156126ef57600080fd5b60006126fd85828601612410565b925050602061270e858286016123e6565b9150509250929050565b60006020828403121561272a57600080fd5b600061273884828501612425565b91505092915050565b60006020828403121561275357600080fd5b60006127618482850161243a565b91505092915050565b60006020828403121561277c57600080fd5b600061278a848285016124a3565b91505092915050565b61279c816130c8565b82525050565b6127ab816130da565b82525050565b6127ba816130e6565b82525050565b60006127cb82612f70565b6127d58185612f86565b93506127e5818560208601613155565b6127ee8161334b565b840191505092915050565b600061280482612f7b565b61280e8185612f97565b935061281e818560208601613155565b6128278161334b565b840191505092915050565b600061283d82612f7b565b6128478185612fa8565b9350612857818560208601613155565b80840191505092915050565b6000612870602083612f97565b915061287b8261335c565b602082019050919050565b6000612893603283612f97565b915061289e82613385565b604082019050919050565b60006128b6602583612f97565b91506128c1826133d4565b604082019050919050565b60006128d9601c83612f97565b91506128e482613423565b602082019050919050565b60006128fc602483612f97565b91506129078261344c565b604082019050919050565b600061291f601983612f97565b915061292a8261349b565b602082019050919050565b6000612942602c83612f97565b915061294d826134c4565b604082019050919050565b6000612965603883612f97565b915061297082613513565b604082019050919050565b6000612988602a83612f97565b915061299382613562565b604082019050919050565b60006129ab602983612f97565b91506129b6826135b1565b604082019050919050565b60006129ce602e83612f97565b91506129d982613600565b604082019050919050565b60006129f1602083612f97565b91506129fc8261364f565b602082019050919050565b6000612a14603183612f97565b9150612a1f82613678565b604082019050919050565b6000612a37602c83612f97565b9150612a42826136c7565b604082019050919050565b6000612a5a602f83612f97565b9150612a6582613716565b604082019050919050565b6000612a7d602183612f97565b9150612a8882613765565b604082019050919050565b6000612aa0603183612f97565b9150612aab826137b4565b604082019050919050565b6000612ac3601783612fa8565b9150612ace82613803565b601782019050919050565b6000612ae6602e83612f97565b9150612af18261382c565b604082019050919050565b6000612b09601183612fa8565b9150612b148261387b565b601182019050919050565b6000612b2c602f83612f97565b9150612b37826138a4565b604082019050919050565b612b4b8161313c565b82525050565b6000612b5d8285612832565b9150612b698284612832565b91508190509392505050565b6000612b8082612ab6565b9150612b8c8285612832565b9150612b9782612afc565b9150612ba38284612832565b91508190509392505050565b6000602082019050612bc46000830184612793565b92915050565b6000608082019050612bdf6000830187612793565b612bec6020830186612793565b612bf96040830185612b42565b8181036060830152612c0b81846127c0565b905095945050505050565b6000602082019050612c2b60008301846127a2565b92915050565b6000602082019050612c4660008301846127b1565b92915050565b60006020820190508181036000830152612c6681846127f9565b905092915050565b60006020820190508181036000830152612c8781612863565b9050919050565b60006020820190508181036000830152612ca781612886565b9050919050565b60006020820190508181036000830152612cc7816128a9565b9050919050565b60006020820190508181036000830152612ce7816128cc565b9050919050565b60006020820190508181036000830152612d07816128ef565b9050919050565b60006020820190508181036000830152612d2781612912565b9050919050565b60006020820190508181036000830152612d4781612935565b9050919050565b60006020820190508181036000830152612d6781612958565b9050919050565b60006020820190508181036000830152612d878161297b565b9050919050565b60006020820190508181036000830152612da78161299e565b9050919050565b60006020820190508181036000830152612dc7816129c1565b9050919050565b60006020820190508181036000830152612de7816129e4565b9050919050565b60006020820190508181036000830152612e0781612a07565b9050919050565b60006020820190508181036000830152612e2781612a2a565b9050919050565b60006020820190508181036000830152612e4781612a4d565b9050919050565b60006020820190508181036000830152612e6781612a70565b9050919050565b60006020820190508181036000830152612e8781612a93565b9050919050565b60006020820190508181036000830152612ea781612ad9565b9050919050565b60006020820190508181036000830152612ec781612b1f565b9050919050565b6000602082019050612ee36000830184612b42565b92915050565b6000612ef3612f04565b9050612eff82826131e4565b919050565b6000604051905090565b600067ffffffffffffffff821115612f2957612f2861331c565b5b612f328261334b565b9050602081019050919050565b600067ffffffffffffffff821115612f5a57612f5961331c565b5b612f638261334b565b9050602081019050919050565b600081519050919050565b600081519050919050565b600082825260208201905092915050565b600082825260208201905092915050565b600081905092915050565b6000612fbe8261313c565b9150612fc98361313c565b9250827fffffffffffffffffffffffffffffffffffffffffffffffffffffffffffffffff03821115612ffe57612ffd61328f565b5b828201905092915050565b60006130148261313c565b915061301f8361313c565b92508261302f5761302e6132be565b5b828204905092915050565b60006130458261313c565b91506130508361313c565b9250817fffffffffffffffffffffffffffffffffffffffffffffffffffffffffffffffff04831182151516156130895761308861328f565b5b828202905092915050565b600061309f8261313c565b91506130aa8361313c565b9250828210156130bd576130bc61328f565b5b828203905092915050565b60006130d38261311c565b9050919050565b60008115159050919050565b6000819050919050565b60007fffffffff0000000000000000000000000000000000000000000000000000000082169050919050565b600073ffffffffffffffffffffffffffffffffffffffff82169050919050565b6000819050919050565b82818337600083830152505050565b60005b83811015613173578082015181840152602081019050613158565b83811115613182576000848401525b50505050565b60006131938261313c565b915060008214156131a7576131a661328f565b5b600182039050919050565b600060028204905060018216806131ca57607f821691505b602082108114156131de576131dd6132ed565b5b50919050565b6131ed8261334b565b810181811067ffffffffffffffff8211171561320c5761320b61331c565b5b80604052505050565b60006132208261313c565b91507fffffffffffffffffffffffffffffffffffffffffffffffffffffffffffffffff8214156132535761325261328f565b5b600182019050919050565b60006132698261313c565b91506132748361313c565b925082613284576132836132be565b5b828206905092915050565b7f4e487b7100000000000000000000000000000000000000000000000000000000600052601160045260246000fd5b7f4e487b7100000000000000000000000000000000000000000000000000000000600052601260045260246000fd5b7f4e487b7100000000000000000000000000000000000000000000000000000000600052602260045260246000fd5b7f4e487b7100000000000000000000000000000000000000000000000000000000600052604160045260246000fd5b6000601f19601f8301169050919050565b7f537472696e67733a20686578206c656e67746820696e73756666696369656e74600082015250565b7f4552433732313a207472616e7366657220746f206e6f6e20455243373231526560008201527f63656976657220696d706c656d656e7465720000000000000000000000000000602082015250565b7f4552433732313a207472616e736665722066726f6d20696e636f72726563742060008201527f6f776e6572000000000000000000000000000000000000000000000000000000602082015250565b7f4552433732313a20746f6b656e20616c7265616479206d696e74656400000000600082015250565b7f4552433732313a207472616e7366657220746f20746865207a65726f2061646460008201527f7265737300000000000000000000000000000000000000000000000000000000602082015250565b7f4552433732313a20617070726f766520746f2063616c6c657200000000000000600082015250565b7f4552433732313a206f70657261746f7220717565727920666f72206e6f6e657860008201527f697374656e7420746f6b656e0000000000000000000000000000000000000000602082015250565b7f4552433732313a20617070726f76652063616c6c6572206973206e6f74206f7760008201527f6e6572206e6f7220617070726f76656420666f7220616c6c0000000000000000602082015250565b7f4552433732313a2062616c616e636520717565727920666f7220746865207a6560008201527f726f206164647265737300000000000000000000000000000000000000000000602082015250565b7f4552433732313a206f776e657220717565727920666f72206e6f6e657869737460008201527f656e7420746f6b656e0000000000000000000000000000000000000000000000602082015250565b7f45524337323155524953746f726167653a2055524920736574206f66206e6f6e60008201527f6578697374656e7420746f6b656e000000000000000000000000000000000000602082015250565b7f4552433732313a206d696e7420746f20746865207a65726f2061646472657373600082015250565b7f45524337323155524953746f726167653a2055524920717565727920666f722060008201527f6e6f6e6578697374656e7420746f6b656e000000000000000000000000000000602082015250565b7f4552433732313a20617070726f76656420717565727920666f72206e6f6e657860008201527f697374656e7420746f6b656e0000000000000000000000000000000000000000602082015250565b7f4552433732314d657461646174613a2055524920717565727920666f72206e6f60008201527f6e6578697374656e7420746f6b656e0000000000000000000000000000000000602082015250565b7f4552433732313a20617070726f76616c20746f2063757272656e74206f776e6560008201527f7200000000000000000000000000000000000000000000000000000000000000602082015250565b7f4552433732313a207472616e736665722063616c6c6572206973206e6f74206f60008201527f776e6572206e6f7220617070726f766564000000000000000000000000000000602082015250565b7f416363657373436f6e74726f6c3a206163636f756e7420000000000000000000600082015250565b7f4552433732313a2063616c6c6572206973206e6f7420746f6b656e206f776e6560008201527f72206e6f7220617070726f766564000000000000000000000000000000000000602082015250565b7f206973206d697373696e6720726f6c6520000000000000000000000000000000600082015250565b7f416363657373436f6e74726f6c3a2063616e206f6e6c792072656e6f756e636560008201527f20726f6c657320666f722073656c660000000000000000000000000000000000602082015250565b6138fc816130c8565b811461390757600080fd5b50565b613913816130da565b811461391e57600080fd5b50565b61392a816130e6565b811461393557600080fd5b50565b613941816130f0565b811461394c57600080fd5b50565b6139588161313c565b811461396357600080fd5b5056fea26469706673582212200120465b660569ed82f5da40fde5e691814e8406953ade7f591389f0cb0e717d64736f6c63430008040033",
  "linkReferences": {},
  "deployedLinkReferences": {}
}