{
  "_format": "hh-sol-artifact-1",
  "contractName": "Factory",
  "sourceName": "contracts/Factory.sol",
  "abi": [
    {
      "inputs": [
        {
          "internalType": "address",
          "name": "_marketplace",
          "type": "address"
        }
      ],
      "stateMutability": "nonpayable",
      "type": "constructor"
    },
    {
      "inputs": [
        {
          "internalType": "string",
          "name": "_name",
          "type": "string"
        }
      ],
      "name": "createNewCollection",
      "outputs": [
        {
          "internalType": "contract NFTCollection",
          "name": "",
          "type": "address"
        }
      ],
      "stateMutability": "payable",
      "type": "function"
    },
    {
      "inputs": [
        {
          "internalType": "uint256",
          "name": "",
          "type": "uint256"
        }
      ],
      "name": "deployedCollection",
      "outputs": [
        {
          "internalType": "contract NFTCollection",
          "name": "",
          "type": "address"
        }
      ],
      "stateMutability": "view",
      "type": "function"
    }
  ],
  "bytecode": "0x608060405234801561001057600080fd5b5060405161426e38038061426e8339818101604052810190610032919061008e565b80600160006101000a81548173ffffffffffffffffffffffffffffffffffffffff021916908373ffffffffffffffffffffffffffffffffffffffff16021790555050610109565b600081519050610088816100f2565b92915050565b6000602082840312156100a4576100a36100ed565b5b60006100b284828501610079565b91505092915050565b60006100c6826100cd565b9050919050565b600073ffffffffffffffffffffffffffffffffffffffff82169050919050565b600080fd5b6100fb816100bb565b811461010657600080fd5b50565b614156806101186000396000f3fe6080604052600436106200002c5760003560e01c80631270a63814620000315780639e859bdb1462000067575b600080fd5b6200004f60048036038101906200004991906200025c565b620000ab565b6040516200005e919062000342565b60405180910390f35b3480156200007457600080fd5b506200009360048036038101906200008d9190620002ad565b62000179565b604051620000a2919062000342565b60405180910390f35b60008082600160009054906101000a900473ffffffffffffffffffffffffffffffffffffffff16604051620000e090620001b9565b620000ed9291906200035f565b604051809103906000f0801580156200010a573d6000803e3d6000fd5b5090506000819080600181540180825580915050600190039060005260206000200160009091909190916101000a81548173ffffffffffffffffffffffffffffffffffffffff021916908373ffffffffffffffffffffffffffffffffffffffff16021790555080915050919050565b600081815481106200018a57600080fd5b906000526020600020016000915054906101000a900473ffffffffffffffffffffffffffffffffffffffff1681565b613baf806200057283390190565b6000620001de620001d884620003bc565b62000393565b905082815260208101848484011115620001fd57620001fc62000537565b5b6200020a84828562000488565b509392505050565b600082601f8301126200022a576200022962000532565b5b81356200023c848260208601620001c7565b91505092915050565b600081359050620002568162000557565b92915050565b60006020828403121562000275576200027462000541565b5b600082013567ffffffffffffffff8111156200029657620002956200053c565b5b620002a48482850162000212565b91505092915050565b600060208284031215620002c657620002c562000541565b5b6000620002d68482850162000245565b91505092915050565b620002ea816200040e565b82525050565b620002fb816200044c565b82525050565b60006200030e82620003f2565b6200031a8185620003fd565b93506200032c81856020860162000497565b620003378162000546565b840191505092915050565b6000602082019050620003596000830184620002f0565b92915050565b600060408201905081810360008301526200037b818562000301565b90506200038c6020830184620002df565b9392505050565b60006200039f620003b2565b9050620003ad8282620004cd565b919050565b6000604051905090565b600067ffffffffffffffff821115620003da57620003d962000503565b5b620003e58262000546565b9050602081019050919050565b600081519050919050565b600082825260208201905092915050565b60006200041b8262000422565b9050919050565b600073ffffffffffffffffffffffffffffffffffffffff82169050919050565b6000819050919050565b6000620004598262000460565b9050919050565b60006200046d8262000474565b9050919050565b6000620004818262000422565b9050919050565b82818337600083830152505050565b60005b83811015620004b75780820151818401526020810190506200049a565b83811115620004c7576000848401525b50505050565b620004d88262000546565b810181811067ffffffffffffffff82111715620004fa57620004f962000503565b5b80604052505050565b7f4e487b7100000000000000000000000000000000000000000000000000000000600052604160045260246000fd5b600080fd5b600080fd5b600080fd5b600080fd5b6000601f19601f8301169050919050565b620005628162000442565b81146200056e57600080fd5b5056fe60806040523480156200001157600080fd5b5060405162003baf38038062003baf833981810160405281019062000037919062000405565b816040518060400160405280600a81526020017f436f6c6c656374696f6e00000000000000000000000000000000000000000000815250828282816000908051906020019062000089929190620002c0565b508060019080519060200190620000a2929190620002c0565b505050620000ba6000801b336200015b60201b60201c565b620000ec7f9f2df0fed2c77648de5860a4cc508cd0818c85b8b8a1ab4ceeef8d981c8956a6336200015b60201b60201c565b6200011e7f9f2df0fed2c77648de5860a4cc508cd0818c85b8b8a1ab4ceeef8d981c8956a6826200015b60201b60201c565b620001507f8502233096d909befbda0999bb8ea2f3a6be3c138b9fbf003752a4c8bce86f6c826200015b60201b60201c565b50505050506200063d565b6200016d82826200024d60201b60201c565b620002495760016007600084815260200190815260200160002060000160008373ffffffffffffffffffffffffffffffffffffffff1673ffffffffffffffffffffffffffffffffffffffff16815260200190815260200160002060006101000a81548160ff021916908315150217905550620001ee620002b860201b60201c565b73ffffffffffffffffffffffffffffffffffffffff168173ffffffffffffffffffffffffffffffffffffffff16837f2f8788117e7eff1d82e926ec794901d17c78024a50270940304540a733656f0d60405160405180910390a45b5050565b60006007600084815260200190815260200160002060000160008373ffffffffffffffffffffffffffffffffffffffff1673ffffffffffffffffffffffffffffffffffffffff16815260200190815260200160002060009054906101000a900460ff16905092915050565b600033905090565b828054620002ce9062000534565b90600052602060002090601f016020900481019282620002f257600085556200033e565b82601f106200030d57805160ff19168380011785556200033e565b828001600101855582156200033e579182015b828111156200033d57825182559160200191906001019062000320565b5b5090506200034d919062000351565b5090565b5b808211156200036c57600081600090555060010162000352565b5090565b600062000387620003818462000494565b6200046b565b905082815260208101848484011115620003a657620003a562000603565b5b620003b3848285620004fe565b509392505050565b600081519050620003cc8162000623565b92915050565b600082601f830112620003ea57620003e9620005fe565b5b8151620003fc84826020860162000370565b91505092915050565b600080604083850312156200041f576200041e6200060d565b5b600083015167ffffffffffffffff81111562000440576200043f62000608565b5b6200044e85828601620003d2565b92505060206200046185828601620003bb565b9150509250929050565b6000620004776200048a565b90506200048582826200056a565b919050565b6000604051905090565b600067ffffffffffffffff821115620004b257620004b1620005cf565b5b620004bd8262000612565b9050602081019050919050565b6000620004d782620004de565b9050919050565b600073ffffffffffffffffffffffffffffffffffffffff82169050919050565b60005b838110156200051e57808201518184015260208101905062000501565b838111156200052e576000848401525b50505050565b600060028204905060018216806200054d57607f821691505b60208210811415620005645762000563620005a0565b5b50919050565b620005758262000612565b810181811067ffffffffffffffff82111715620005975762000596620005cf565b5b80604052505050565b7f4e487b7100000000000000000000000000000000000000000000000000000000600052602260045260246000fd5b7f4e487b7100000000000000000000000000000000000000000000000000000000600052604160045260246000fd5b600080fd5b600080fd5b600080fd5b600080fd5b6000601f19601f8301169050919050565b6200062e81620004ca565b81146200063a57600080fd5b50565b613562806200064d6000396000f3fe608060405234801561001057600080fd5b506004361061014d5760003560e01c806370a08231116100c3578063b88d4fde1161007c578063b88d4fde146103b0578063c87b56dd146103cc578063d204c45e146103fc578063d539139314610418578063d547741f14610436578063e985e9c5146104525761014d565b806370a08231146102da57806384c4bd4b1461030a57806391d148541461032857806395d89b4114610358578063a217fddf14610376578063a22cb465146103945761014d565b806323b872dd1161011557806323b872dd1461020a578063248a9ca3146102265780632f2ff15d1461025657806336568abe1461027257806342842e0e1461028e5780636352211e146102aa5761014d565b806301ffc9a71461015257806306fdde0314610182578063081812fc146101a0578063095ea7b3146101d0578063206b60f9146101ec575b600080fd5b61016c6004803603810190610167919061258f565b610482565b60405161017991906129ea565b60405180910390f35b61018a610494565b6040516101979190612a20565b60405180910390f35b6101ba60048036038101906101b591906125e9565b610526565b6040516101c79190612983565b60405180910390f35b6101ea60048036038101906101e591906124e2565b61056c565b005b6101f4610684565b6040516102019190612a05565b60405180910390f35b610224600480360381019061021f9190612370565b6106a8565b005b610240600480360381019061023b9190612522565b610708565b60405161024d9190612a05565b60405180910390f35b610270600480360381019061026b919061254f565b610728565b005b61028c6004803603810190610287919061254f565b610749565b005b6102a860048036038101906102a39190612370565b6107cc565b005b6102c460048036038101906102bf91906125e9565b610874565b6040516102d19190612983565b60405180910390f35b6102f460048036038101906102ef9190612303565b610926565b6040516103019190612c02565b60405180910390f35b6103126109de565b60405161031f9190612c02565b60405180910390f35b610342600480360381019061033d919061254f565b6109ea565b60405161034f91906129ea565b60405180910390f35b610360610a55565b60405161036d9190612a20565b60405180910390f35b61037e610ae7565b60405161038b9190612a05565b60405180910390f35b6103ae60048036038101906103a99190612446565b610aee565b005b6103ca60048036038101906103c591906123c3565b610b04565b005b6103e660048036038101906103e191906125e9565b610b66565b6040516103f39190612a20565b60405180910390f35b61041660048036038101906104119190612486565b610b78565b005b610420610bd4565b60405161042d9190612a05565b60405180910390f35b610450600480360381019061044b919061254f565b610bf8565b005b61046c60048036038101906104679190612330565b610c19565b60405161047991906129ea565b60405180910390f35b600061048d82610cad565b9050919050565b6060600080546104a390612ee6565b80601f01602080910402602001604051908101604052809291908181526020018280546104cf90612ee6565b801561051c5780601f106104f15761010080835404028352916020019161051c565b820191906000526020600020905b8154815290600101906020018083116104ff57829003601f168201915b5050505050905090565b600061053182610d27565b6004600083815260200190815260200160002060009054906101000a900473ffffffffffffffffffffffffffffffffffffffff169050919050565b600061057782610874565b90508073ffffffffffffffffffffffffffffffffffffffff168373ffffffffffffffffffffffffffffffffffffffff1614156105e8576040517f08c379a00000000000000000000000000000000000000000000000000000000081526004016105df90612ba2565b60405180910390fd5b8073ffffffffffffffffffffffffffffffffffffffff16610607610d72565b73ffffffffffffffffffffffffffffffffffffffff161480610636575061063581610630610d72565b610c19565b5b610675576040517f08c379a000000000000000000000000000000000000000000000000000000000815260040161066c90612b42565b60405180910390fd5b61067f8383610d7a565b505050565b7f8502233096d909befbda0999bb8ea2f3a6be3c138b9fbf003752a4c8bce86f6c81565b6106b96106b3610d72565b82610e33565b6106f8576040517f08c379a00000000000000000000000000000000000000000000000000000000081526004016106ef90612bc2565b60405180910390fd5b610703838383610ec8565b505050565b600060076000838152602001908152602001600020600101549050919050565b61073182610708565b61073a8161112f565b6107448383611143565b505050565b610751610d72565b73ffffffffffffffffffffffffffffffffffffffff168173ffffffffffffffffffffffffffffffffffffffff16146107be576040517f08c379a00000000000000000000000000000000000000000000000000000000081526004016107b590612be2565b60405180910390fd5b6107c88282611224565b5050565b6107dd6107d7610d72565b82610e33565b8061081557506108147f8502233096d909befbda0999bb8ea2f3a6be3c138b9fbf003752a4c8bce86f6c61080f610d72565b6109ea565b5b610854576040517f08c379a000000000000000000000000000000000000000000000000000000000815260040161084b90612bc2565b60405180910390fd5b61086f83838360405180602001604052806000815250611306565b505050565b6000806002600084815260200190815260200160002060009054906101000a900473ffffffffffffffffffffffffffffffffffffffff169050600073ffffffffffffffffffffffffffffffffffffffff168173ffffffffffffffffffffffffffffffffffffffff16141561091d576040517f08c379a000000000000000000000000000000000000000000000000000000000815260040161091490612b82565b60405180910390fd5b80915050919050565b60008073ffffffffffffffffffffffffffffffffffffffff168273ffffffffffffffffffffffffffffffffffffffff161415610997576040517f08c379a000000000000000000000000000000000000000000000000000000000815260040161098e90612b02565b60405180910390fd5b600360008373ffffffffffffffffffffffffffffffffffffffff1673ffffffffffffffffffffffffffffffffffffffff168152602001908152602001600020549050919050565b60088060000154905081565b60006007600084815260200190815260200160002060000160008373ffffffffffffffffffffffffffffffffffffffff1673ffffffffffffffffffffffffffffffffffffffff16815260200190815260200160002060009054906101000a900460ff16905092915050565b606060018054610a6490612ee6565b80601f0160208091040260200160405190810160405280929190818152602001828054610a9090612ee6565b8015610add5780601f10610ab257610100808354040283529160200191610add565b820191906000526020600020905b815481529060010190602001808311610ac057829003601f168201915b5050505050905090565b6000801b81565b610b00610af9610d72565b8383611362565b5050565b610b15610b0f610d72565b83610e33565b610b54576040517f08c379a0000000000000000000000000000000000000000000000000000000008152600401610b4b90612bc2565b60405180910390fd5b610b6084848484611306565b50505050565b6060610b71826114cf565b9050919050565b7f9f2df0fed2c77648de5860a4cc508cd0818c85b8b8a1ab4ceeef8d981c8956a6610ba28161112f565b6000610bae60086115e2565b9050610bba60086115f0565b610bc48482611606565b610bce8184611624565b50505050565b7f9f2df0fed2c77648de5860a4cc508cd0818c85b8b8a1ab4ceeef8d981c8956a681565b610c0182610708565b610c0a8161112f565b610c148383611224565b505050565b6000600560008473ffffffffffffffffffffffffffffffffffffffff1673ffffffffffffffffffffffffffffffffffffffff16815260200190815260200160002060008373ffffffffffffffffffffffffffffffffffffffff1673ffffffffffffffffffffffffffffffffffffffff16815260200190815260200160002060009054906101000a900460ff16905092915050565b60007f7965db0b000000000000000000000000000000000000000000000000000000007bffffffffffffffffffffffffffffffffffffffffffffffffffffffff1916827bffffffffffffffffffffffffffffffffffffffffffffffffffffffff19161480610d205750610d1f82611698565b5b9050919050565b610d308161177a565b610d6f576040517f08c379a0000000000000000000000000000000000000000000000000000000008152600401610d6690612b82565b60405180910390fd5b50565b600033905090565b816004600083815260200190815260200160002060006101000a81548173ffffffffffffffffffffffffffffffffffffffff021916908373ffffffffffffffffffffffffffffffffffffffff160217905550808273ffffffffffffffffffffffffffffffffffffffff16610ded83610874565b73ffffffffffffffffffffffffffffffffffffffff167f8c5be1e5ebec7d5bd14f71427d1e84f3dd0314c0f7b2291e5b200ac8c7c3b92560405160405180910390a45050565b600080610e3f83610874565b90508073ffffffffffffffffffffffffffffffffffffffff168473ffffffffffffffffffffffffffffffffffffffff161480610e815750610e808185610c19565b5b80610ebf57508373ffffffffffffffffffffffffffffffffffffffff16610ea784610526565b73ffffffffffffffffffffffffffffffffffffffff16145b91505092915050565b8273ffffffffffffffffffffffffffffffffffffffff16610ee882610874565b73ffffffffffffffffffffffffffffffffffffffff1614610f3e576040517f08c379a0000000000000000000000000000000000000000000000000000000008152600401610f3590612a82565b60405180910390fd5b600073ffffffffffffffffffffffffffffffffffffffff168273ffffffffffffffffffffffffffffffffffffffff161415610fae576040517f08c379a0000000000000000000000000000000000000000000000000000000008152600401610fa590612ac2565b60405180910390fd5b610fb98383836117e6565b610fc4600082610d7a565b6001600360008573ffffffffffffffffffffffffffffffffffffffff1673ffffffffffffffffffffffffffffffffffffffff16815260200190815260200160002060008282546110149190612dc8565b925050819055506001600360008473ffffffffffffffffffffffffffffffffffffffff1673ffffffffffffffffffffffffffffffffffffffff168152602001908152602001600020600082825461106b9190612ce7565b92505081905550816002600083815260200190815260200160002060006101000a81548173ffffffffffffffffffffffffffffffffffffffff021916908373ffffffffffffffffffffffffffffffffffffffff160217905550808273ffffffffffffffffffffffffffffffffffffffff168473ffffffffffffffffffffffffffffffffffffffff167fddf252ad1be2c89b69c2b068fc378daa952ba7f163c4a11628f55a4df523b3ef60405160405180910390a461112a8383836117eb565b505050565b6111408161113b610d72565b6117f0565b50565b61114d82826109ea565b6112205760016007600084815260200190815260200160002060000160008373ffffffffffffffffffffffffffffffffffffffff1673ffffffffffffffffffffffffffffffffffffffff16815260200190815260200160002060006101000a81548160ff0219169083151502179055506111c5610d72565b73ffffffffffffffffffffffffffffffffffffffff168173ffffffffffffffffffffffffffffffffffffffff16837f2f8788117e7eff1d82e926ec794901d17c78024a50270940304540a733656f0d60405160405180910390a45b5050565b61122e82826109ea565b156113025760006007600084815260200190815260200160002060000160008373ffffffffffffffffffffffffffffffffffffffff1673ffffffffffffffffffffffffffffffffffffffff16815260200190815260200160002060006101000a81548160ff0219169083151502179055506112a7610d72565b73ffffffffffffffffffffffffffffffffffffffff168173ffffffffffffffffffffffffffffffffffffffff16837ff6391f5c32d9c69d2a47ea670b442974b53935d1edc7fd64eb21e047a839171b60405160405180910390a45b5050565b611311848484610ec8565b61131d8484848461188d565b61135c576040517f08c379a000000000000000000000000000000000000000000000000000000000815260040161135390612a62565b60405180910390fd5b50505050565b8173ffffffffffffffffffffffffffffffffffffffff168373ffffffffffffffffffffffffffffffffffffffff1614156113d1576040517f08c379a00000000000000000000000000000000000000000000000000000000081526004016113c890612ae2565b60405180910390fd5b80600560008573ffffffffffffffffffffffffffffffffffffffff1673ffffffffffffffffffffffffffffffffffffffff16815260200190815260200160002060008473ffffffffffffffffffffffffffffffffffffffff1673ffffffffffffffffffffffffffffffffffffffff16815260200190815260200160002060006101000a81548160ff0219169083151502179055508173ffffffffffffffffffffffffffffffffffffffff168373ffffffffffffffffffffffffffffffffffffffff167f17307eab39ab6107e8899845ad3d59bd9653f200f220920489ca2b5937696c31836040516114c291906129ea565b60405180910390a3505050565b60606114da82610d27565b60006006600084815260200190815260200160002080546114fa90612ee6565b80601f016020809104026020016040519081016040528092919081815260200182805461152690612ee6565b80156115735780601f1061154857610100808354040283529160200191611573565b820191906000526020600020905b81548152906001019060200180831161155657829003601f168201915b505050505090506000611584611a24565b905060008151141561159a5781925050506115dd565b6000825111156115cf5780826040516020016115b7929190612925565b604051602081830303815290604052925050506115dd565b6115d884611a3b565b925050505b919050565b600081600001549050919050565b6001816000016000828254019250508190555050565b611620828260405180602001604052806000815250611aa3565b5050565b61162d8261177a565b61166c576040517f08c379a000000000000000000000000000000000000000000000000000000000815260040161166390612b22565b60405180910390fd5b80600660008481526020019081526020016000209080519060200190611693929190612102565b505050565b60007f80ac58cd000000000000000000000000000000000000000000000000000000007bffffffffffffffffffffffffffffffffffffffffffffffffffffffff1916827bffffffffffffffffffffffffffffffffffffffffffffffffffffffff1916148061176357507f5b5e139f000000000000000000000000000000000000000000000000000000007bffffffffffffffffffffffffffffffffffffffffffffffffffffffff1916827bffffffffffffffffffffffffffffffffffffffffffffffffffffffff1916145b80611773575061177282611afe565b5b9050919050565b60008073ffffffffffffffffffffffffffffffffffffffff166002600084815260200190815260200160002060009054906101000a900473ffffffffffffffffffffffffffffffffffffffff1673ffffffffffffffffffffffffffffffffffffffff1614159050919050565b505050565b505050565b6117fa82826109ea565b6118895761181f8173ffffffffffffffffffffffffffffffffffffffff166014611b68565b61182d8360001c6020611b68565b60405160200161183e929190612949565b6040516020818303038152906040526040517f08c379a00000000000000000000000000000000000000000000000000000000081526004016118809190612a20565b60405180910390fd5b5050565b60006118ae8473ffffffffffffffffffffffffffffffffffffffff16611da4565b15611a17578373ffffffffffffffffffffffffffffffffffffffff1663150b7a026118d7610d72565b8786866040518563ffffffff1660e01b81526004016118f9949392919061299e565b602060405180830381600087803b15801561191357600080fd5b505af192505050801561194457506040513d601f19601f8201168201806040525081019061194191906125bc565b60015b6119c7573d8060008114611974576040519150601f19603f3d011682016040523d82523d6000602084013e611979565b606091505b506000815114156119bf576040517f08c379a00000000000000000000000000000000000000000000000000000000081526004016119b690612a62565b60405180910390fd5b805181602001fd5b63150b7a0260e01b7bffffffffffffffffffffffffffffffffffffffffffffffffffffffff1916817bffffffffffffffffffffffffffffffffffffffffffffffffffffffff191614915050611a1c565b600190505b949350505050565b606060405180602001604052806000815250905090565b6060611a4682610d27565b6000611a50611a24565b90506000815111611a705760405180602001604052806000815250611a9b565b80611a7a84611dc7565b604051602001611a8b929190612925565b6040516020818303038152906040525b915050919050565b611aad8383611f28565b611aba600084848461188d565b611af9576040517f08c379a0000000000000000000000000000000000000000000000000000000008152600401611af090612a62565b60405180910390fd5b505050565b60007f01ffc9a7000000000000000000000000000000000000000000000000000000007bffffffffffffffffffffffffffffffffffffffffffffffffffffffff1916827bffffffffffffffffffffffffffffffffffffffffffffffffffffffff1916149050919050565b606060006002836002611b7b9190612d6e565b611b859190612ce7565b67ffffffffffffffff811115611b9e57611b9d61307f565b5b6040519080825280601f01601f191660200182016040528015611bd05781602001600182028036833780820191505090505b5090507f300000000000000000000000000000000000000000000000000000000000000081600081518110611c0857611c07613050565b5b60200101907effffffffffffffffffffffffffffffffffffffffffffffffffffffffffffff1916908160001a9053507f780000000000000000000000000000000000000000000000000000000000000081600181518110611c6c57611c6b613050565b5b60200101907effffffffffffffffffffffffffffffffffffffffffffffffffffffffffffff1916908160001a90535060006001846002611cac9190612d6e565b611cb69190612ce7565b90505b6001811115611d56577f3031323334353637383961626364656600000000000000000000000000000000600f861660108110611cf857611cf7613050565b5b1a60f81b828281518110611d0f57611d0e613050565b5b60200101907effffffffffffffffffffffffffffffffffffffffffffffffffffffffffffff1916908160001a905350600485901c945080611d4f90612ebc565b9050611cb9565b5060008414611d9a576040517f08c379a0000000000000000000000000000000000000000000000000000000008152600401611d9190612a42565b60405180910390fd5b8091505092915050565b6000808273ffffffffffffffffffffffffffffffffffffffff163b119050919050565b60606000821415611e0f576040518060400160405280600181526020017f30000000000000000000000000000000000000000000000000000000000000008152509050611f23565b600082905060005b60008214611e41578080611e2a90612f49565b915050600a82611e3a9190612d3d565b9150611e17565b60008167ffffffffffffffff811115611e5d57611e5c61307f565b5b6040519080825280601f01601f191660200182016040528015611e8f5781602001600182028036833780820191505090505b5090505b60008514611f1c57600182611ea89190612dc8565b9150600a85611eb79190612f92565b6030611ec39190612ce7565b60f81b818381518110611ed957611ed8613050565b5b60200101907effffffffffffffffffffffffffffffffffffffffffffffffffffffffffffff1916908160001a905350600a85611f159190612d3d565b9450611e93565b8093505050505b919050565b600073ffffffffffffffffffffffffffffffffffffffff168273ffffffffffffffffffffffffffffffffffffffff161415611f98576040517f08c379a0000000000000000000000000000000000000000000000000000000008152600401611f8f90612b62565b60405180910390fd5b611fa18161177a565b15611fe1576040517f08c379a0000000000000000000000000000000000000000000000000000000008152600401611fd890612aa2565b60405180910390fd5b611fed600083836117e6565b6001600360008473ffffffffffffffffffffffffffffffffffffffff1673ffffffffffffffffffffffffffffffffffffffff168152602001908152602001600020600082825461203d9190612ce7565b92505081905550816002600083815260200190815260200160002060006101000a81548173ffffffffffffffffffffffffffffffffffffffff021916908373ffffffffffffffffffffffffffffffffffffffff160217905550808273ffffffffffffffffffffffffffffffffffffffff16600073ffffffffffffffffffffffffffffffffffffffff167fddf252ad1be2c89b69c2b068fc378daa952ba7f163c4a11628f55a4df523b3ef60405160405180910390a46120fe600083836117eb565b5050565b82805461210e90612ee6565b90600052602060002090601f0160209004810192826121305760008555612177565b82601f1061214957805160ff1916838001178555612177565b82800160010185558215612177579182015b8281111561217657825182559160200191906001019061215b565b5b5090506121849190612188565b5090565b5b808211156121a1576000816000905550600101612189565b5090565b60006121b86121b384612c42565b612c1d565b9050828152602081018484840111156121d4576121d36130b3565b5b6121df848285612e7a565b509392505050565b60006121fa6121f584612c73565b612c1d565b905082815260208101848484011115612216576122156130b3565b5b612221848285612e7a565b509392505050565b600081359050612238816134b9565b92915050565b60008135905061224d816134d0565b92915050565b600081359050612262816134e7565b92915050565b600081359050612277816134fe565b92915050565b60008151905061228c816134fe565b92915050565b600082601f8301126122a7576122a66130ae565b5b81356122b78482602086016121a5565b91505092915050565b600082601f8301126122d5576122d46130ae565b5b81356122e58482602086016121e7565b91505092915050565b6000813590506122fd81613515565b92915050565b600060208284031215612319576123186130bd565b5b600061232784828501612229565b91505092915050565b60008060408385031215612347576123466130bd565b5b600061235585828601612229565b925050602061236685828601612229565b9150509250929050565b600080600060608486031215612389576123886130bd565b5b600061239786828701612229565b93505060206123a886828701612229565b92505060406123b9868287016122ee565b9150509250925092565b600080600080608085870312156123dd576123dc6130bd565b5b60006123eb87828801612229565b94505060206123fc87828801612229565b935050604061240d878288016122ee565b925050606085013567ffffffffffffffff81111561242e5761242d6130b8565b5b61243a87828801612292565b91505092959194509250565b6000806040838503121561245d5761245c6130bd565b5b600061246b85828601612229565b925050602061247c8582860161223e565b9150509250929050565b6000806040838503121561249d5761249c6130bd565b5b60006124ab85828601612229565b925050602083013567ffffffffffffffff8111156124cc576124cb6130b8565b5b6124d8858286016122c0565b9150509250929050565b600080604083850312156124f9576124f86130bd565b5b600061250785828601612229565b9250506020612518858286016122ee565b9150509250929050565b600060208284031215612538576125376130bd565b5b600061254684828501612253565b91505092915050565b60008060408385031215612566576125656130bd565b5b600061257485828601612253565b925050602061258585828601612229565b9150509250929050565b6000602082840312156125a5576125a46130bd565b5b60006125b384828501612268565b91505092915050565b6000602082840312156125d2576125d16130bd565b5b60006125e08482850161227d565b91505092915050565b6000602082840312156125ff576125fe6130bd565b5b600061260d848285016122ee565b91505092915050565b61261f81612dfc565b82525050565b61262e81612e0e565b82525050565b61263d81612e1a565b82525050565b600061264e82612ca4565b6126588185612cba565b9350612668818560208601612e89565b612671816130c2565b840191505092915050565b600061268782612caf565b6126918185612ccb565b93506126a1818560208601612e89565b6126aa816130c2565b840191505092915050565b60006126c082612caf565b6126ca8185612cdc565b93506126da818560208601612e89565b80840191505092915050565b60006126f3602083612ccb565b91506126fe826130d3565b602082019050919050565b6000612716603283612ccb565b9150612721826130fc565b604082019050919050565b6000612739602583612ccb565b91506127448261314b565b604082019050919050565b600061275c601c83612ccb565b91506127678261319a565b602082019050919050565b600061277f602483612ccb565b915061278a826131c3565b604082019050919050565b60006127a2601983612ccb565b91506127ad82613212565b602082019050919050565b60006127c5602983612ccb565b91506127d08261323b565b604082019050919050565b60006127e8602e83612ccb565b91506127f38261328a565b604082019050919050565b600061280b603e83612ccb565b9150612816826132d9565b604082019050919050565b600061282e602083612ccb565b915061283982613328565b602082019050919050565b6000612851601883612ccb565b915061285c82613351565b602082019050919050565b6000612874602183612ccb565b915061287f8261337a565b604082019050919050565b6000612897601783612cdc565b91506128a2826133c9565b601782019050919050565b60006128ba602e83612ccb565b91506128c5826133f2565b604082019050919050565b60006128dd601183612cdc565b91506128e882613441565b601182019050919050565b6000612900602f83612ccb565b915061290b8261346a565b604082019050919050565b61291f81612e70565b82525050565b600061293182856126b5565b915061293d82846126b5565b91508190509392505050565b60006129548261288a565b915061296082856126b5565b915061296b826128d0565b915061297782846126b5565b91508190509392505050565b60006020820190506129986000830184612616565b92915050565b60006080820190506129b36000830187612616565b6129c06020830186612616565b6129cd6040830185612916565b81810360608301526129df8184612643565b905095945050505050565b60006020820190506129ff6000830184612625565b92915050565b6000602082019050612a1a6000830184612634565b92915050565b60006020820190508181036000830152612a3a818461267c565b905092915050565b60006020820190508181036000830152612a5b816126e6565b9050919050565b60006020820190508181036000830152612a7b81612709565b9050919050565b60006020820190508181036000830152612a9b8161272c565b9050919050565b60006020820190508181036000830152612abb8161274f565b9050919050565b60006020820190508181036000830152612adb81612772565b9050919050565b60006020820190508181036000830152612afb81612795565b9050919050565b60006020820190508181036000830152612b1b816127b8565b9050919050565b60006020820190508181036000830152612b3b816127db565b9050919050565b60006020820190508181036000830152612b5b816127fe565b9050919050565b60006020820190508181036000830152612b7b81612821565b9050919050565b60006020820190508181036000830152612b9b81612844565b9050919050565b60006020820190508181036000830152612bbb81612867565b9050919050565b60006020820190508181036000830152612bdb816128ad565b9050919050565b60006020820190508181036000830152612bfb816128f3565b9050919050565b6000602082019050612c176000830184612916565b92915050565b6000612c27612c38565b9050612c338282612f18565b919050565b6000604051905090565b600067ffffffffffffffff821115612c5d57612c5c61307f565b5b612c66826130c2565b9050602081019050919050565b600067ffffffffffffffff821115612c8e57612c8d61307f565b5b612c97826130c2565b9050602081019050919050565b600081519050919050565b600081519050919050565b600082825260208201905092915050565b600082825260208201905092915050565b600081905092915050565b6000612cf282612e70565b9150612cfd83612e70565b9250827fffffffffffffffffffffffffffffffffffffffffffffffffffffffffffffffff03821115612d3257612d31612fc3565b5b828201905092915050565b6000612d4882612e70565b9150612d5383612e70565b925082612d6357612d62612ff2565b5b828204905092915050565b6000612d7982612e70565b9150612d8483612e70565b9250817fffffffffffffffffffffffffffffffffffffffffffffffffffffffffffffffff0483118215151615612dbd57612dbc612fc3565b5b828202905092915050565b6000612dd382612e70565b9150612dde83612e70565b925082821015612df157612df0612fc3565b5b828203905092915050565b6000612e0782612e50565b9050919050565b60008115159050919050565b6000819050919050565b60007fffffffff0000000000000000000000000000000000000000000000000000000082169050919050565b600073ffffffffffffffffffffffffffffffffffffffff82169050919050565b6000819050919050565b82818337600083830152505050565b60005b83811015612ea7578082015181840152602081019050612e8c565b83811115612eb6576000848401525b50505050565b6000612ec782612e70565b91506000821415612edb57612eda612fc3565b5b600182039050919050565b60006002820490506001821680612efe57607f821691505b60208210811415612f1257612f11613021565b5b50919050565b612f21826130c2565b810181811067ffffffffffffffff82111715612f4057612f3f61307f565b5b80604052505050565b6000612f5482612e70565b91507fffffffffffffffffffffffffffffffffffffffffffffffffffffffffffffffff821415612f8757612f86612fc3565b5b600182019050919050565b6000612f9d82612e70565b9150612fa883612e70565b925082612fb857612fb7612ff2565b5b828206905092915050565b7f4e487b7100000000000000000000000000000000000000000000000000000000600052601160045260246000fd5b7f4e487b7100000000000000000000000000000000000000000000000000000000600052601260045260246000fd5b7f4e487b7100000000000000000000000000000000000000000000000000000000600052602260045260246000fd5b7f4e487b7100000000000000000000000000000000000000000000000000000000600052603260045260246000fd5b7f4e487b7100000000000000000000000000000000000000000000000000000000600052604160045260246000fd5b600080fd5b600080fd5b600080fd5b600080fd5b6000601f19601f8301169050919050565b7f537472696e67733a20686578206c656e67746820696e73756666696369656e74600082015250565b7f4552433732313a207472616e7366657220746f206e6f6e20455243373231526560008201527f63656976657220696d706c656d656e7465720000000000000000000000000000602082015250565b7f4552433732313a207472616e736665722066726f6d20696e636f72726563742060008201527f6f776e6572000000000000000000000000000000000000000000000000000000602082015250565b7f4552433732313a20746f6b656e20616c7265616479206d696e74656400000000600082015250565b7f4552433732313a207472616e7366657220746f20746865207a65726f2061646460008201527f7265737300000000000000000000000000000000000000000000000000000000602082015250565b7f4552433732313a20617070726f766520746f2063616c6c657200000000000000600082015250565b7f4552433732313a2061646472657373207a65726f206973206e6f74206120766160008201527f6c6964206f776e65720000000000000000000000000000000000000000000000602082015250565b7f45524337323155524953746f726167653a2055524920736574206f66206e6f6e60008201527f6578697374656e7420746f6b656e000000000000000000000000000000000000602082015250565b7f4552433732313a20617070726f76652063616c6c6572206973206e6f7420746f60008201527f6b656e206f776e6572206e6f7220617070726f76656420666f7220616c6c0000602082015250565b7f4552433732313a206d696e7420746f20746865207a65726f2061646472657373600082015250565b7f4552433732313a20696e76616c696420746f6b656e2049440000000000000000600082015250565b7f4552433732313a20617070726f76616c20746f2063757272656e74206f776e6560008201527f7200000000000000000000000000000000000000000000000000000000000000602082015250565b7f416363657373436f6e74726f6c3a206163636f756e7420000000000000000000600082015250565b7f4552433732313a2063616c6c6572206973206e6f7420746f6b656e206f776e6560008201527f72206e6f7220617070726f766564000000000000000000000000000000000000602082015250565b7f206973206d697373696e6720726f6c6520000000000000000000000000000000600082015250565b7f416363657373436f6e74726f6c3a2063616e206f6e6c792072656e6f756e636560008201527f20726f6c657320666f722073656c660000000000000000000000000000000000602082015250565b6134c281612dfc565b81146134cd57600080fd5b50565b6134d981612e0e565b81146134e457600080fd5b50565b6134f081612e1a565b81146134fb57600080fd5b50565b61350781612e24565b811461351257600080fd5b50565b61351e81612e70565b811461352957600080fd5b5056fea2646970667358221220df6ec7a90799d079f81fa355aafa0a90ed1f7ff8cad30634a3995b9de6b2ca3964736f6c63430008070033a26469706673582212201618661522f6475f9c7263cc70eb4e7fcd7e67318948185a5ba7708481ad59c964736f6c63430008070033",
  "linkReferences": {},
  "deployedLinkReferences": {}
}