{
  "_format": "hh-sol-artifact-1",
  "contractName": "NFTCollection",
  "sourceName": "contracts/NFTCollection.sol",
  "abi": [
    {
      "inputs": [
        {
          "internalType": "string",
          "name": "_name",
          "type": "string"
        },
        {
          "internalType": "address",
          "name": "_marketplace",
          "type": "address"
        }
      ],
      "stateMutability": "nonpayable",
      "type": "constructor"
    },
    {
      "anonymous": false,
      "inputs": [
        {
          "indexed": true,
          "internalType": "address",
          "name": "owner",
          "type": "address"
        },
        {
          "indexed": true,
          "internalType": "address",
          "name": "approved",
          "type": "address"
        },
        {
          "indexed": true,
          "internalType": "uint256",
          "name": "tokenId",
          "type": "uint256"
        }
      ],
      "name": "Approval",
      "type": "event"
    },
    {
      "anonymous": false,
      "inputs": [
        {
          "indexed": true,
          "internalType": "address",
          "name": "owner",
          "type": "address"
        },
        {
          "indexed": true,
          "internalType": "address",
          "name": "operator",
          "type": "address"
        },
        {
          "indexed": false,
          "internalType": "bool",
          "name": "approved",
          "type": "bool"
        }
      ],
      "name": "ApprovalForAll",
      "type": "event"
    },
    {
      "anonymous": false,
      "inputs": [
        {
          "indexed": true,
          "internalType": "bytes32",
          "name": "role",
          "type": "bytes32"
        },
        {
          "indexed": true,
          "internalType": "bytes32",
          "name": "previousAdminRole",
          "type": "bytes32"
        },
        {
          "indexed": true,
          "internalType": "bytes32",
          "name": "newAdminRole",
          "type": "bytes32"
        }
      ],
      "name": "RoleAdminChanged",
      "type": "event"
    },
    {
      "anonymous": false,
      "inputs": [
        {
          "indexed": true,
          "internalType": "bytes32",
          "name": "role",
          "type": "bytes32"
        },
        {
          "indexed": true,
          "internalType": "address",
          "name": "account",
          "type": "address"
        },
        {
          "indexed": true,
          "internalType": "address",
          "name": "sender",
          "type": "address"
        }
      ],
      "name": "RoleGranted",
      "type": "event"
    },
    {
      "anonymous": false,
      "inputs": [
        {
          "indexed": true,
          "internalType": "bytes32",
          "name": "role",
          "type": "bytes32"
        },
        {
          "indexed": true,
          "internalType": "address",
          "name": "account",
          "type": "address"
        },
        {
          "indexed": true,
          "internalType": "address",
          "name": "sender",
          "type": "address"
        }
      ],
      "name": "RoleRevoked",
      "type": "event"
    },
    {
      "anonymous": false,
      "inputs": [
        {
          "indexed": true,
          "internalType": "address",
          "name": "from",
          "type": "address"
        },
        {
          "indexed": true,
          "internalType": "address",
          "name": "to",
          "type": "address"
        },
        {
          "indexed": true,
          "internalType": "uint256",
          "name": "tokenId",
          "type": "uint256"
        }
      ],
      "name": "Transfer",
      "type": "event"
    },
    {
      "inputs": [],
      "name": "DEFAULT_ADMIN_ROLE",
      "outputs": [
        {
          "internalType": "bytes32",
          "name": "",
          "type": "bytes32"
        }
      ],
      "stateMutability": "view",
      "type": "function"
    },
    {
      "inputs": [],
      "name": "MINTER_ROLE",
      "outputs": [
        {
          "internalType": "bytes32",
          "name": "",
          "type": "bytes32"
        }
      ],
      "stateMutability": "view",
      "type": "function"
    },
    {
      "inputs": [],
      "name": "TRANSFER_ROLE",
      "outputs": [
        {
          "internalType": "bytes32",
          "name": "",
          "type": "bytes32"
        }
      ],
      "stateMutability": "view",
      "type": "function"
    },
    {
      "inputs": [],
      "name": "_tokenIdCounter",
      "outputs": [
        {
          "internalType": "uint256",
          "name": "_value",
          "type": "uint256"
        }
      ],
      "stateMutability": "view",
      "type": "function"
    },
    {
      "inputs": [
        {
          "internalType": "address",
          "name": "to",
          "type": "address"
        },
        {
          "internalType": "uint256",
          "name": "tokenId",
          "type": "uint256"
        }
      ],
      "name": "approve",
      "outputs": [],
      "stateMutability": "nonpayable",
      "type": "function"
    },
    {
      "inputs": [
        {
          "internalType": "address",
          "name": "owner",
          "type": "address"
        }
      ],
      "name": "balanceOf",
      "outputs": [
        {
          "internalType": "uint256",
          "name": "",
          "type": "uint256"
        }
      ],
      "stateMutability": "view",
      "type": "function"
    },
    {
      "inputs": [
        {
          "internalType": "uint256",
          "name": "tokenId",
          "type": "uint256"
        }
      ],
      "name": "getApproved",
      "outputs": [
        {
          "internalType": "address",
          "name": "",
          "type": "address"
        }
      ],
      "stateMutability": "view",
      "type": "function"
    },
    {
      "inputs": [
        {
          "internalType": "bytes32",
          "name": "role",
          "type": "bytes32"
        }
      ],
      "name": "getRoleAdmin",
      "outputs": [
        {
          "internalType": "bytes32",
          "name": "",
          "type": "bytes32"
        }
      ],
      "stateMutability": "view",
      "type": "function"
    },
    {
      "inputs": [
        {
          "internalType": "bytes32",
          "name": "role",
          "type": "bytes32"
        },
        {
          "internalType": "address",
          "name": "account",
          "type": "address"
        }
      ],
      "name": "grantRole",
      "outputs": [],
      "stateMutability": "nonpayable",
      "type": "function"
    },
    {
      "inputs": [
        {
          "internalType": "bytes32",
          "name": "role",
          "type": "bytes32"
        },
        {
          "internalType": "address",
          "name": "account",
          "type": "address"
        }
      ],
      "name": "hasRole",
      "outputs": [
        {
          "internalType": "bool",
          "name": "",
          "type": "bool"
        }
      ],
      "stateMutability": "view",
      "type": "function"
    },
    {
      "inputs": [
        {
          "internalType": "address",
          "name": "owner",
          "type": "address"
        },
        {
          "internalType": "address",
          "name": "operator",
          "type": "address"
        }
      ],
      "name": "isApprovedForAll",
      "outputs": [
        {
          "internalType": "bool",
          "name": "",
          "type": "bool"
        }
      ],
      "stateMutability": "view",
      "type": "function"
    },
    {
      "inputs": [],
      "name": "name",
      "outputs": [
        {
          "internalType": "string",
          "name": "",
          "type": "string"
        }
      ],
      "stateMutability": "view",
      "type": "function"
    },
    {
      "inputs": [
        {
          "internalType": "uint256",
          "name": "tokenId",
          "type": "uint256"
        }
      ],
      "name": "ownerOf",
      "outputs": [
        {
          "internalType": "address",
          "name": "",
          "type": "address"
        }
      ],
      "stateMutability": "view",
      "type": "function"
    },
    {
      "inputs": [
        {
          "internalType": "bytes32",
          "name": "role",
          "type": "bytes32"
        },
        {
          "internalType": "address",
          "name": "account",
          "type": "address"
        }
      ],
      "name": "renounceRole",
      "outputs": [],
      "stateMutability": "nonpayable",
      "type": "function"
    },
    {
      "inputs": [
        {
          "internalType": "bytes32",
          "name": "role",
          "type": "bytes32"
        },
        {
          "internalType": "address",
          "name": "account",
          "type": "address"
        }
      ],
      "name": "revokeRole",
      "outputs": [],
      "stateMutability": "nonpayable",
      "type": "function"
    },
    {
      "inputs": [
        {
          "internalType": "address",
          "name": "to",
          "type": "address"
        },
        {
          "internalType": "string",
          "name": "uri",
          "type": "string"
        }
      ],
      "name": "safeMint",
      "outputs": [],
      "stateMutability": "nonpayable",
      "type": "function"
    },
    {
      "inputs": [
        {
          "internalType": "address",
          "name": "from",
          "type": "address"
        },
        {
          "internalType": "address",
          "name": "to",
          "type": "address"
        },
        {
          "internalType": "uint256",
          "name": "tokenId",
          "type": "uint256"
        }
      ],
      "name": "safeTransferFrom",
      "outputs": [],
      "stateMutability": "nonpayable",
      "type": "function"
    },
    {
      "inputs": [
        {
          "internalType": "address",
          "name": "from",
          "type": "address"
        },
        {
          "internalType": "address",
          "name": "to",
          "type": "address"
        },
        {
          "internalType": "uint256",
          "name": "tokenId",
          "type": "uint256"
        },
        {
          "internalType": "bytes",
          "name": "_data",
          "type": "bytes"
        }
      ],
      "name": "safeTransferFrom",
      "outputs": [],
      "stateMutability": "nonpayable",
      "type": "function"
    },
    {
      "inputs": [
        {
          "internalType": "address",
          "name": "operator",
          "type": "address"
        },
        {
          "internalType": "bool",
          "name": "approved",
          "type": "bool"
        }
      ],
      "name": "setApprovalForAll",
      "outputs": [],
      "stateMutability": "nonpayable",
      "type": "function"
    },
    {
      "inputs": [
        {
          "internalType": "bytes4",
          "name": "interfaceId",
          "type": "bytes4"
        }
      ],
      "name": "supportsInterface",
      "outputs": [
        {
          "internalType": "bool",
          "name": "",
          "type": "bool"
        }
      ],
      "stateMutability": "view",
      "type": "function"
    },
    {
      "inputs": [],
      "name": "symbol",
      "outputs": [
        {
          "internalType": "string",
          "name": "",
          "type": "string"
        }
      ],
      "stateMutability": "view",
      "type": "function"
    },
    {
      "inputs": [
        {
          "internalType": "uint256",
          "name": "tokenId",
          "type": "uint256"
        }
      ],
      "name": "tokenURI",
      "outputs": [
        {
          "internalType": "string",
          "name": "",
          "type": "string"
        }
      ],
      "stateMutability": "view",
      "type": "function"
    },
    {
      "inputs": [
        {
          "internalType": "address",
          "name": "from",
          "type": "address"
        },
        {
          "internalType": "address",
          "name": "to",
          "type": "address"
        },
        {
          "internalType": "uint256",
          "name": "tokenId",
          "type": "uint256"
        }
      ],
      "name": "transferFrom",
      "outputs": [],
      "stateMutability": "nonpayable",
      "type": "function"
    }
  ],
  "bytecode": "0x60806040523480156200001157600080fd5b5060405162003f6a38038062003f6a833981810160405281019062000037919062000405565b816040518060400160405280600a81526020017f436f6c6c656374696f6e00000000000000000000000000000000000000000000815250828282816000908051906020019062000089929190620002c0565b508060019080519060200190620000a2929190620002c0565b505050620000ba6000801b336200015b60201b60201c565b620000ec7f9f2df0fed2c77648de5860a4cc508cd0818c85b8b8a1ab4ceeef8d981c8956a6336200015b60201b60201c565b6200011e7f9f2df0fed2c77648de5860a4cc508cd0818c85b8b8a1ab4ceeef8d981c8956a6826200015b60201b60201c565b620001507f8502233096d909befbda0999bb8ea2f3a6be3c138b9fbf003752a4c8bce86f6c826200015b60201b60201c565b50505050506200063d565b6200016d82826200024d60201b60201c565b620002495760016007600084815260200190815260200160002060000160008373ffffffffffffffffffffffffffffffffffffffff1673ffffffffffffffffffffffffffffffffffffffff16815260200190815260200160002060006101000a81548160ff021916908315150217905550620001ee620002b860201b60201c565b73ffffffffffffffffffffffffffffffffffffffff168173ffffffffffffffffffffffffffffffffffffffff16837f2f8788117e7eff1d82e926ec794901d17c78024a50270940304540a733656f0d60405160405180910390a45b5050565b60006007600084815260200190815260200160002060000160008373ffffffffffffffffffffffffffffffffffffffff1673ffffffffffffffffffffffffffffffffffffffff16815260200190815260200160002060009054906101000a900460ff16905092915050565b600033905090565b828054620002ce9062000534565b90600052602060002090601f016020900481019282620002f257600085556200033e565b82601f106200030d57805160ff19168380011785556200033e565b828001600101855582156200033e579182015b828111156200033d57825182559160200191906001019062000320565b5b5090506200034d919062000351565b5090565b5b808211156200036c57600081600090555060010162000352565b5090565b600062000387620003818462000494565b6200046b565b905082815260208101848484011115620003a657620003a562000603565b5b620003b3848285620004fe565b509392505050565b600081519050620003cc8162000623565b92915050565b600082601f830112620003ea57620003e9620005fe565b5b8151620003fc84826020860162000370565b91505092915050565b600080604083850312156200041f576200041e6200060d565b5b600083015167ffffffffffffffff81111562000440576200043f62000608565b5b6200044e85828601620003d2565b92505060206200046185828601620003bb565b9150509250929050565b6000620004776200048a565b90506200048582826200056a565b919050565b6000604051905090565b600067ffffffffffffffff821115620004b257620004b1620005cf565b5b620004bd8262000612565b9050602081019050919050565b6000620004d782620004de565b9050919050565b600073ffffffffffffffffffffffffffffffffffffffff82169050919050565b60005b838110156200051e57808201518184015260208101905062000501565b838111156200052e576000848401525b50505050565b600060028204905060018216806200054d57607f821691505b60208210811415620005645762000563620005a0565b5b50919050565b620005758262000612565b810181811067ffffffffffffffff82111715620005975762000596620005cf565b5b80604052505050565b7f4e487b7100000000000000000000000000000000000000000000000000000000600052602260045260246000fd5b7f4e487b7100000000000000000000000000000000000000000000000000000000600052604160045260246000fd5b600080fd5b600080fd5b600080fd5b600080fd5b6000601f19601f8301169050919050565b6200062e81620004ca565b81146200063a57600080fd5b50565b61391d806200064d6000396000f3fe608060405234801561001057600080fd5b506004361061014d5760003560e01c806370a08231116100c3578063b88d4fde1161007c578063b88d4fde146103b0578063c87b56dd146103cc578063d204c45e146103fc578063d539139314610418578063d547741f14610436578063e985e9c5146104525761014d565b806370a08231146102da57806384c4bd4b1461030a57806391d148541461032857806395d89b4114610358578063a217fddf14610376578063a22cb465146103945761014d565b806323b872dd1161011557806323b872dd1461020a578063248a9ca3146102265780632f2ff15d1461025657806336568abe1461027257806342842e0e1461028e5780636352211e146102aa5761014d565b806301ffc9a71461015257806306fdde0314610182578063081812fc146101a0578063095ea7b3146101d0578063206b60f9146101ec575b600080fd5b61016c6004803603810190610167919061264a565b610482565b6040516101799190612b54565b60405180910390f35b61018a610494565b6040516101979190612b8a565b60405180910390f35b6101ba60048036038101906101b591906126a4565b610526565b6040516101c79190612aed565b60405180910390f35b6101ea60048036038101906101e5919061259d565b6105ab565b005b6101f46106c3565b6040516102019190612b6f565b60405180910390f35b610224600480360381019061021f919061242b565b6106e7565b005b610240600480360381019061023b91906125dd565b610747565b60405161024d9190612b6f565b60405180910390f35b610270600480360381019061026b919061260a565b610767565b005b61028c6004803603810190610287919061260a565b610788565b005b6102a860048036038101906102a3919061242b565b61080b565b005b6102c460048036038101906102bf91906126a4565b6108b3565b6040516102d19190612aed565b60405180910390f35b6102f460048036038101906102ef91906123be565b610965565b6040516103019190612e0c565b60405180910390f35b610312610a1d565b60405161031f9190612e0c565b60405180910390f35b610342600480360381019061033d919061260a565b610a29565b60405161034f9190612b54565b60405180910390f35b610360610a94565b60405161036d9190612b8a565b60405180910390f35b61037e610b26565b60405161038b9190612b6f565b60405180910390f35b6103ae60048036038101906103a99190612501565b610b2d565b005b6103ca60048036038101906103c5919061247e565b610b43565b005b6103e660048036038101906103e191906126a4565b610ba5565b6040516103f39190612b8a565b60405180910390f35b61041660048036038101906104119190612541565b610bb7565b005b610420610c13565b60405161042d9190612b6f565b60405180910390f35b610450600480360381019061044b919061260a565b610c37565b005b61046c600480360381019061046791906123eb565b610c58565b6040516104799190612b54565b60405180910390f35b600061048d82610cec565b9050919050565b6060600080546104a3906130f0565b80601f01602080910402602001604051908101604052809291908181526020018280546104cf906130f0565b801561051c5780601f106104f15761010080835404028352916020019161051c565b820191906000526020600020905b8154815290600101906020018083116104ff57829003601f168201915b5050505050905090565b600061053182610d66565b610570576040517f08c379a000000000000000000000000000000000000000000000000000000000815260040161056790612d4c565b60405180910390fd5b6004600083815260200190815260200160002060009054906101000a900473ffffffffffffffffffffffffffffffffffffffff169050919050565b60006105b6826108b3565b90508073ffffffffffffffffffffffffffffffffffffffff168373ffffffffffffffffffffffffffffffffffffffff161415610627576040517f08c379a000000000000000000000000000000000000000000000000000000000815260040161061e90612d8c565b60405180910390fd5b8073ffffffffffffffffffffffffffffffffffffffff16610646610dd2565b73ffffffffffffffffffffffffffffffffffffffff16148061067557506106748161066f610dd2565b610c58565b5b6106b4576040517f08c379a00000000000000000000000000000000000000000000000000000000081526004016106ab90612c8c565b60405180910390fd5b6106be8383610dda565b505050565b7f8502233096d909befbda0999bb8ea2f3a6be3c138b9fbf003752a4c8bce86f6c81565b6106f86106f2610dd2565b82610e93565b610737576040517f08c379a000000000000000000000000000000000000000000000000000000000815260040161072e90612dac565b60405180910390fd5b610742838383610f71565b505050565b600060076000838152602001908152602001600020600101549050919050565b61077082610747565b610779816111d8565b61078383836111ec565b505050565b610790610dd2565b73ffffffffffffffffffffffffffffffffffffffff168173ffffffffffffffffffffffffffffffffffffffff16146107fd576040517f08c379a00000000000000000000000000000000000000000000000000000000081526004016107f490612dec565b60405180910390fd5b61080782826112cd565b5050565b61081c610816610dd2565b82610e93565b8061085457506108537f8502233096d909befbda0999bb8ea2f3a6be3c138b9fbf003752a4c8bce86f6c61084e610dd2565b610a29565b5b610893576040517f08c379a000000000000000000000000000000000000000000000000000000000815260040161088a90612dcc565b60405180910390fd5b6108ae838383604051806020016040528060008152506113af565b505050565b6000806002600084815260200190815260200160002060009054906101000a900473ffffffffffffffffffffffffffffffffffffffff169050600073ffffffffffffffffffffffffffffffffffffffff168173ffffffffffffffffffffffffffffffffffffffff16141561095c576040517f08c379a000000000000000000000000000000000000000000000000000000000815260040161095390612ccc565b60405180910390fd5b80915050919050565b60008073ffffffffffffffffffffffffffffffffffffffff168273ffffffffffffffffffffffffffffffffffffffff1614156109d6576040517f08c379a00000000000000000000000000000000000000000000000000000000081526004016109cd90612cac565b60405180910390fd5b600360008373ffffffffffffffffffffffffffffffffffffffff1673ffffffffffffffffffffffffffffffffffffffff168152602001908152602001600020549050919050565b60088060000154905081565b60006007600084815260200190815260200160002060000160008373ffffffffffffffffffffffffffffffffffffffff1673ffffffffffffffffffffffffffffffffffffffff16815260200190815260200160002060009054906101000a900460ff16905092915050565b606060018054610aa3906130f0565b80601f0160208091040260200160405190810160405280929190818152602001828054610acf906130f0565b8015610b1c5780601f10610af157610100808354040283529160200191610b1c565b820191906000526020600020905b815481529060010190602001808311610aff57829003601f168201915b5050505050905090565b6000801b81565b610b3f610b38610dd2565b838361140b565b5050565b610b54610b4e610dd2565b83610e93565b610b93576040517f08c379a0000000000000000000000000000000000000000000000000000000008152600401610b8a90612dac565b60405180910390fd5b610b9f848484846113af565b50505050565b6060610bb082611578565b9050919050565b7f9f2df0fed2c77648de5860a4cc508cd0818c85b8b8a1ab4ceeef8d981c8956a6610be1816111d8565b6000610bed60086116ca565b9050610bf960086116d8565b610c0384826116ee565b610c0d818461170c565b50505050565b7f9f2df0fed2c77648de5860a4cc508cd0818c85b8b8a1ab4ceeef8d981c8956a681565b610c4082610747565b610c49816111d8565b610c5383836112cd565b505050565b6000600560008473ffffffffffffffffffffffffffffffffffffffff1673ffffffffffffffffffffffffffffffffffffffff16815260200190815260200160002060008373ffffffffffffffffffffffffffffffffffffffff1673ffffffffffffffffffffffffffffffffffffffff16815260200190815260200160002060009054906101000a900460ff16905092915050565b60007f7965db0b000000000000000000000000000000000000000000000000000000007bffffffffffffffffffffffffffffffffffffffffffffffffffffffff1916827bffffffffffffffffffffffffffffffffffffffffffffffffffffffff19161480610d5f5750610d5e82611780565b5b9050919050565b60008073ffffffffffffffffffffffffffffffffffffffff166002600084815260200190815260200160002060009054906101000a900473ffffffffffffffffffffffffffffffffffffffff1673ffffffffffffffffffffffffffffffffffffffff1614159050919050565b600033905090565b816004600083815260200190815260200160002060006101000a81548173ffffffffffffffffffffffffffffffffffffffff021916908373ffffffffffffffffffffffffffffffffffffffff160217905550808273ffffffffffffffffffffffffffffffffffffffff16610e4d836108b3565b73ffffffffffffffffffffffffffffffffffffffff167f8c5be1e5ebec7d5bd14f71427d1e84f3dd0314c0f7b2291e5b200ac8c7c3b92560405160405180910390a45050565b6000610e9e82610d66565b610edd576040517f08c379a0000000000000000000000000000000000000000000000000000000008152600401610ed490612c6c565b60405180910390fd5b6000610ee8836108b3565b90508073ffffffffffffffffffffffffffffffffffffffff168473ffffffffffffffffffffffffffffffffffffffff161480610f2a5750610f298185610c58565b5b80610f6857508373ffffffffffffffffffffffffffffffffffffffff16610f5084610526565b73ffffffffffffffffffffffffffffffffffffffff16145b91505092915050565b8273ffffffffffffffffffffffffffffffffffffffff16610f91826108b3565b73ffffffffffffffffffffffffffffffffffffffff1614610fe7576040517f08c379a0000000000000000000000000000000000000000000000000000000008152600401610fde90612bec565b60405180910390fd5b600073ffffffffffffffffffffffffffffffffffffffff168273ffffffffffffffffffffffffffffffffffffffff161415611057576040517f08c379a000000000000000000000000000000000000000000000000000000000815260040161104e90612c2c565b60405180910390fd5b611062838383611862565b61106d600082610dda565b6001600360008573ffffffffffffffffffffffffffffffffffffffff1673ffffffffffffffffffffffffffffffffffffffff16815260200190815260200160002060008282546110bd9190612fd2565b925050819055506001600360008473ffffffffffffffffffffffffffffffffffffffff1673ffffffffffffffffffffffffffffffffffffffff16815260200190815260200160002060008282546111149190612ef1565b92505081905550816002600083815260200190815260200160002060006101000a81548173ffffffffffffffffffffffffffffffffffffffff021916908373ffffffffffffffffffffffffffffffffffffffff160217905550808273ffffffffffffffffffffffffffffffffffffffff168473ffffffffffffffffffffffffffffffffffffffff167fddf252ad1be2c89b69c2b068fc378daa952ba7f163c4a11628f55a4df523b3ef60405160405180910390a46111d3838383611867565b505050565b6111e9816111e4610dd2565b61186c565b50565b6111f68282610a29565b6112c95760016007600084815260200190815260200160002060000160008373ffffffffffffffffffffffffffffffffffffffff1673ffffffffffffffffffffffffffffffffffffffff16815260200190815260200160002060006101000a81548160ff02191690831515021790555061126e610dd2565b73ffffffffffffffffffffffffffffffffffffffff168173ffffffffffffffffffffffffffffffffffffffff16837f2f8788117e7eff1d82e926ec794901d17c78024a50270940304540a733656f0d60405160405180910390a45b5050565b6112d78282610a29565b156113ab5760006007600084815260200190815260200160002060000160008373ffffffffffffffffffffffffffffffffffffffff1673ffffffffffffffffffffffffffffffffffffffff16815260200190815260200160002060006101000a81548160ff021916908315150217905550611350610dd2565b73ffffffffffffffffffffffffffffffffffffffff168173ffffffffffffffffffffffffffffffffffffffff16837ff6391f5c32d9c69d2a47ea670b442974b53935d1edc7fd64eb21e047a839171b60405160405180910390a45b5050565b6113ba848484610f71565b6113c684848484611909565b611405576040517f08c379a00000000000000000000000000000000000000000000000000000000081526004016113fc90612bcc565b60405180910390fd5b50505050565b8173ffffffffffffffffffffffffffffffffffffffff168373ffffffffffffffffffffffffffffffffffffffff16141561147a576040517f08c379a000000000000000000000000000000000000000000000000000000000815260040161147190612c4c565b60405180910390fd5b80600560008573ffffffffffffffffffffffffffffffffffffffff1673ffffffffffffffffffffffffffffffffffffffff16815260200190815260200160002060008473ffffffffffffffffffffffffffffffffffffffff1673ffffffffffffffffffffffffffffffffffffffff16815260200190815260200160002060006101000a81548160ff0219169083151502179055508173ffffffffffffffffffffffffffffffffffffffff168373ffffffffffffffffffffffffffffffffffffffff167f17307eab39ab6107e8899845ad3d59bd9653f200f220920489ca2b5937696c318360405161156b9190612b54565b60405180910390a3505050565b606061158382610d66565b6115c2576040517f08c379a00000000000000000000000000000000000000000000000000000000081526004016115b990612d2c565b60405180910390fd5b60006006600084815260200190815260200160002080546115e2906130f0565b80601f016020809104026020016040519081016040528092919081815260200182805461160e906130f0565b801561165b5780601f106116305761010080835404028352916020019161165b565b820191906000526020600020905b81548152906001019060200180831161163e57829003601f168201915b50505050509050600061166c611aa0565b90506000815114156116825781925050506116c5565b6000825111156116b757808260405160200161169f929190612a8f565b604051602081830303815290604052925050506116c5565b6116c084611ab7565b925050505b919050565b600081600001549050919050565b6001816000016000828254019250508190555050565b611708828260405180602001604052806000815250611b5e565b5050565b61171582610d66565b611754576040517f08c379a000000000000000000000000000000000000000000000000000000000815260040161174b90612cec565b60405180910390fd5b8060066000848152602001908152602001600020908051906020019061177b9291906121bd565b505050565b60007f80ac58cd000000000000000000000000000000000000000000000000000000007bffffffffffffffffffffffffffffffffffffffffffffffffffffffff1916827bffffffffffffffffffffffffffffffffffffffffffffffffffffffff1916148061184b57507f5b5e139f000000000000000000000000000000000000000000000000000000007bffffffffffffffffffffffffffffffffffffffffffffffffffffffff1916827bffffffffffffffffffffffffffffffffffffffffffffffffffffffff1916145b8061185b575061185a82611bb9565b5b9050919050565b505050565b505050565b6118768282610a29565b6119055761189b8173ffffffffffffffffffffffffffffffffffffffff166014611c23565b6118a98360001c6020611c23565b6040516020016118ba929190612ab3565b6040516020818303038152906040526040517f08c379a00000000000000000000000000000000000000000000000000000000081526004016118fc9190612b8a565b60405180910390fd5b5050565b600061192a8473ffffffffffffffffffffffffffffffffffffffff16611e5f565b15611a93578373ffffffffffffffffffffffffffffffffffffffff1663150b7a02611953610dd2565b8786866040518563ffffffff1660e01b81526004016119759493929190612b08565b602060405180830381600087803b15801561198f57600080fd5b505af19250505080156119c057506040513d601f19601f820116820180604052508101906119bd9190612677565b60015b611a43573d80600081146119f0576040519150601f19603f3d011682016040523d82523d6000602084013e6119f5565b606091505b50600081511415611a3b576040517f08c379a0000000000000000000000000000000000000000000000000000000008152600401611a3290612bcc565b60405180910390fd5b805181602001fd5b63150b7a0260e01b7bffffffffffffffffffffffffffffffffffffffffffffffffffffffff1916817bffffffffffffffffffffffffffffffffffffffffffffffffffffffff191614915050611a98565b600190505b949350505050565b606060405180602001604052806000815250905090565b6060611ac282610d66565b611b01576040517f08c379a0000000000000000000000000000000000000000000000000000000008152600401611af890612d6c565b60405180910390fd5b6000611b0b611aa0565b90506000815111611b2b5760405180602001604052806000815250611b56565b80611b3584611e82565b604051602001611b46929190612a8f565b6040516020818303038152906040525b915050919050565b611b688383611fe3565b611b756000848484611909565b611bb4576040517f08c379a0000000000000000000000000000000000000000000000000000000008152600401611bab90612bcc565b60405180910390fd5b505050565b60007f01ffc9a7000000000000000000000000000000000000000000000000000000007bffffffffffffffffffffffffffffffffffffffffffffffffffffffff1916827bffffffffffffffffffffffffffffffffffffffffffffffffffffffff1916149050919050565b606060006002836002611c369190612f78565b611c409190612ef1565b67ffffffffffffffff811115611c5957611c58613289565b5b6040519080825280601f01601f191660200182016040528015611c8b5781602001600182028036833780820191505090505b5090507f300000000000000000000000000000000000000000000000000000000000000081600081518110611cc357611cc261325a565b5b60200101907effffffffffffffffffffffffffffffffffffffffffffffffffffffffffffff1916908160001a9053507f780000000000000000000000000000000000000000000000000000000000000081600181518110611d2757611d2661325a565b5b60200101907effffffffffffffffffffffffffffffffffffffffffffffffffffffffffffff1916908160001a90535060006001846002611d679190612f78565b611d719190612ef1565b90505b6001811115611e11577f3031323334353637383961626364656600000000000000000000000000000000600f861660108110611db357611db261325a565b5b1a60f81b828281518110611dca57611dc961325a565b5b60200101907effffffffffffffffffffffffffffffffffffffffffffffffffffffffffffff1916908160001a905350600485901c945080611e0a906130c6565b9050611d74565b5060008414611e55576040517f08c379a0000000000000000000000000000000000000000000000000000000008152600401611e4c90612bac565b60405180910390fd5b8091505092915050565b6000808273ffffffffffffffffffffffffffffffffffffffff163b119050919050565b60606000821415611eca576040518060400160405280600181526020017f30000000000000000000000000000000000000000000000000000000000000008152509050611fde565b600082905060005b60008214611efc578080611ee590613153565b915050600a82611ef59190612f47565b9150611ed2565b60008167ffffffffffffffff811115611f1857611f17613289565b5b6040519080825280601f01601f191660200182016040528015611f4a5781602001600182028036833780820191505090505b5090505b60008514611fd757600182611f639190612fd2565b9150600a85611f72919061319c565b6030611f7e9190612ef1565b60f81b818381518110611f9457611f9361325a565b5b60200101907effffffffffffffffffffffffffffffffffffffffffffffffffffffffffffff1916908160001a905350600a85611fd09190612f47565b9450611f4e565b8093505050505b919050565b600073ffffffffffffffffffffffffffffffffffffffff168273ffffffffffffffffffffffffffffffffffffffff161415612053576040517f08c379a000000000000000000000000000000000000000000000000000000000815260040161204a90612d0c565b60405180910390fd5b61205c81610d66565b1561209c576040517f08c379a000000000000000000000000000000000000000000000000000000000815260040161209390612c0c565b60405180910390fd5b6120a860008383611862565b6001600360008473ffffffffffffffffffffffffffffffffffffffff1673ffffffffffffffffffffffffffffffffffffffff16815260200190815260200160002060008282546120f89190612ef1565b92505081905550816002600083815260200190815260200160002060006101000a81548173ffffffffffffffffffffffffffffffffffffffff021916908373ffffffffffffffffffffffffffffffffffffffff160217905550808273ffffffffffffffffffffffffffffffffffffffff16600073ffffffffffffffffffffffffffffffffffffffff167fddf252ad1be2c89b69c2b068fc378daa952ba7f163c4a11628f55a4df523b3ef60405160405180910390a46121b960008383611867565b5050565b8280546121c9906130f0565b90600052602060002090601f0160209004810192826121eb5760008555612232565b82601f1061220457805160ff1916838001178555612232565b82800160010185558215612232579182015b82811115612231578251825591602001919060010190612216565b5b50905061223f9190612243565b5090565b5b8082111561225c576000816000905550600101612244565b5090565b600061227361226e84612e4c565b612e27565b90508281526020810184848401111561228f5761228e6132bd565b5b61229a848285613084565b509392505050565b60006122b56122b084612e7d565b612e27565b9050828152602081018484840111156122d1576122d06132bd565b5b6122dc848285613084565b509392505050565b6000813590506122f381613874565b92915050565b6000813590506123088161388b565b92915050565b60008135905061231d816138a2565b92915050565b600081359050612332816138b9565b92915050565b600081519050612347816138b9565b92915050565b600082601f830112612362576123616132b8565b5b8135612372848260208601612260565b91505092915050565b600082601f8301126123905761238f6132b8565b5b81356123a08482602086016122a2565b91505092915050565b6000813590506123b8816138d0565b92915050565b6000602082840312156123d4576123d36132c7565b5b60006123e2848285016122e4565b91505092915050565b60008060408385031215612402576124016132c7565b5b6000612410858286016122e4565b9250506020612421858286016122e4565b9150509250929050565b600080600060608486031215612444576124436132c7565b5b6000612452868287016122e4565b9350506020612463868287016122e4565b9250506040612474868287016123a9565b9150509250925092565b60008060008060808587031215612498576124976132c7565b5b60006124a6878288016122e4565b94505060206124b7878288016122e4565b93505060406124c8878288016123a9565b925050606085013567ffffffffffffffff8111156124e9576124e86132c2565b5b6124f58782880161234d565b91505092959194509250565b60008060408385031215612518576125176132c7565b5b6000612526858286016122e4565b9250506020612537858286016122f9565b9150509250929050565b60008060408385031215612558576125576132c7565b5b6000612566858286016122e4565b925050602083013567ffffffffffffffff811115612587576125866132c2565b5b6125938582860161237b565b9150509250929050565b600080604083850312156125b4576125b36132c7565b5b60006125c2858286016122e4565b92505060206125d3858286016123a9565b9150509250929050565b6000602082840312156125f3576125f26132c7565b5b60006126018482850161230e565b91505092915050565b60008060408385031215612621576126206132c7565b5b600061262f8582860161230e565b9250506020612640858286016122e4565b9150509250929050565b6000602082840312156126605761265f6132c7565b5b600061266e84828501612323565b91505092915050565b60006020828403121561268d5761268c6132c7565b5b600061269b84828501612338565b91505092915050565b6000602082840312156126ba576126b96132c7565b5b60006126c8848285016123a9565b91505092915050565b6126da81613006565b82525050565b6126e981613018565b82525050565b6126f881613024565b82525050565b600061270982612eae565b6127138185612ec4565b9350612723818560208601613093565b61272c816132cc565b840191505092915050565b600061274282612eb9565b61274c8185612ed5565b935061275c818560208601613093565b612765816132cc565b840191505092915050565b600061277b82612eb9565b6127858185612ee6565b9350612795818560208601613093565b80840191505092915050565b60006127ae602083612ed5565b91506127b9826132dd565b602082019050919050565b60006127d1603283612ed5565b91506127dc82613306565b604082019050919050565b60006127f4602583612ed5565b91506127ff82613355565b604082019050919050565b6000612817601c83612ed5565b9150612822826133a4565b602082019050919050565b600061283a602483612ed5565b9150612845826133cd565b604082019050919050565b600061285d601983612ed5565b91506128688261341c565b602082019050919050565b6000612880602c83612ed5565b915061288b82613445565b604082019050919050565b60006128a3603883612ed5565b91506128ae82613494565b604082019050919050565b60006128c6602a83612ed5565b91506128d1826134e3565b604082019050919050565b60006128e9602983612ed5565b91506128f482613532565b604082019050919050565b600061290c602e83612ed5565b915061291782613581565b604082019050919050565b600061292f602083612ed5565b915061293a826135d0565b602082019050919050565b6000612952603183612ed5565b915061295d826135f9565b604082019050919050565b6000612975602c83612ed5565b915061298082613648565b604082019050919050565b6000612998602f83612ed5565b91506129a382613697565b604082019050919050565b60006129bb602183612ed5565b91506129c6826136e6565b604082019050919050565b60006129de603183612ed5565b91506129e982613735565b604082019050919050565b6000612a01601783612ee6565b9150612a0c82613784565b601782019050919050565b6000612a24602e83612ed5565b9150612a2f826137ad565b604082019050919050565b6000612a47601183612ee6565b9150612a52826137fc565b601182019050919050565b6000612a6a602f83612ed5565b9150612a7582613825565b604082019050919050565b612a898161307a565b82525050565b6000612a9b8285612770565b9150612aa78284612770565b91508190509392505050565b6000612abe826129f4565b9150612aca8285612770565b9150612ad582612a3a565b9150612ae18284612770565b91508190509392505050565b6000602082019050612b0260008301846126d1565b92915050565b6000608082019050612b1d60008301876126d1565b612b2a60208301866126d1565b612b376040830185612a80565b8181036060830152612b4981846126fe565b905095945050505050565b6000602082019050612b6960008301846126e0565b92915050565b6000602082019050612b8460008301846126ef565b92915050565b60006020820190508181036000830152612ba48184612737565b905092915050565b60006020820190508181036000830152612bc5816127a1565b9050919050565b60006020820190508181036000830152612be5816127c4565b9050919050565b60006020820190508181036000830152612c05816127e7565b9050919050565b60006020820190508181036000830152612c258161280a565b9050919050565b60006020820190508181036000830152612c458161282d565b9050919050565b60006020820190508181036000830152612c6581612850565b9050919050565b60006020820190508181036000830152612c8581612873565b9050919050565b60006020820190508181036000830152612ca581612896565b9050919050565b60006020820190508181036000830152612cc5816128b9565b9050919050565b60006020820190508181036000830152612ce5816128dc565b9050919050565b60006020820190508181036000830152612d05816128ff565b9050919050565b60006020820190508181036000830152612d2581612922565b9050919050565b60006020820190508181036000830152612d4581612945565b9050919050565b60006020820190508181036000830152612d6581612968565b9050919050565b60006020820190508181036000830152612d858161298b565b9050919050565b60006020820190508181036000830152612da5816129ae565b9050919050565b60006020820190508181036000830152612dc5816129d1565b9050919050565b60006020820190508181036000830152612de581612a17565b9050919050565b60006020820190508181036000830152612e0581612a5d565b9050919050565b6000602082019050612e216000830184612a80565b92915050565b6000612e31612e42565b9050612e3d8282613122565b919050565b6000604051905090565b600067ffffffffffffffff821115612e6757612e66613289565b5b612e70826132cc565b9050602081019050919050565b600067ffffffffffffffff821115612e9857612e97613289565b5b612ea1826132cc565b9050602081019050919050565b600081519050919050565b600081519050919050565b600082825260208201905092915050565b600082825260208201905092915050565b600081905092915050565b6000612efc8261307a565b9150612f078361307a565b9250827fffffffffffffffffffffffffffffffffffffffffffffffffffffffffffffffff03821115612f3c57612f3b6131cd565b5b828201905092915050565b6000612f528261307a565b9150612f5d8361307a565b925082612f6d57612f6c6131fc565b5b828204905092915050565b6000612f838261307a565b9150612f8e8361307a565b9250817fffffffffffffffffffffffffffffffffffffffffffffffffffffffffffffffff0483118215151615612fc757612fc66131cd565b5b828202905092915050565b6000612fdd8261307a565b9150612fe88361307a565b925082821015612ffb57612ffa6131cd565b5b828203905092915050565b60006130118261305a565b9050919050565b60008115159050919050565b6000819050919050565b60007fffffffff0000000000000000000000000000000000000000000000000000000082169050919050565b600073ffffffffffffffffffffffffffffffffffffffff82169050919050565b6000819050919050565b82818337600083830152505050565b60005b838110156130b1578082015181840152602081019050613096565b838111156130c0576000848401525b50505050565b60006130d18261307a565b915060008214156130e5576130e46131cd565b5b600182039050919050565b6000600282049050600182168061310857607f821691505b6020821081141561311c5761311b61322b565b5b50919050565b61312b826132cc565b810181811067ffffffffffffffff8211171561314a57613149613289565b5b80604052505050565b600061315e8261307a565b91507fffffffffffffffffffffffffffffffffffffffffffffffffffffffffffffffff821415613191576131906131cd565b5b600182019050919050565b60006131a78261307a565b91506131b28361307a565b9250826131c2576131c16131fc565b5b828206905092915050565b7f4e487b7100000000000000000000000000000000000000000000000000000000600052601160045260246000fd5b7f4e487b7100000000000000000000000000000000000000000000000000000000600052601260045260246000fd5b7f4e487b7100000000000000000000000000000000000000000000000000000000600052602260045260246000fd5b7f4e487b7100000000000000000000000000000000000000000000000000000000600052603260045260246000fd5b7f4e487b7100000000000000000000000000000000000000000000000000000000600052604160045260246000fd5b600080fd5b600080fd5b600080fd5b600080fd5b6000601f19601f8301169050919050565b7f537472696e67733a20686578206c656e67746820696e73756666696369656e74600082015250565b7f4552433732313a207472616e7366657220746f206e6f6e20455243373231526560008201527f63656976657220696d706c656d656e7465720000000000000000000000000000602082015250565b7f4552433732313a207472616e736665722066726f6d20696e636f72726563742060008201527f6f776e6572000000000000000000000000000000000000000000000000000000602082015250565b7f4552433732313a20746f6b656e20616c7265616479206d696e74656400000000600082015250565b7f4552433732313a207472616e7366657220746f20746865207a65726f2061646460008201527f7265737300000000000000000000000000000000000000000000000000000000602082015250565b7f4552433732313a20617070726f766520746f2063616c6c657200000000000000600082015250565b7f4552433732313a206f70657261746f7220717565727920666f72206e6f6e657860008201527f697374656e7420746f6b656e0000000000000000000000000000000000000000602082015250565b7f4552433732313a20617070726f76652063616c6c6572206973206e6f74206f7760008201527f6e6572206e6f7220617070726f76656420666f7220616c6c0000000000000000602082015250565b7f4552433732313a2062616c616e636520717565727920666f7220746865207a6560008201527f726f206164647265737300000000000000000000000000000000000000000000602082015250565b7f4552433732313a206f776e657220717565727920666f72206e6f6e657869737460008201527f656e7420746f6b656e0000000000000000000000000000000000000000000000602082015250565b7f45524337323155524953746f726167653a2055524920736574206f66206e6f6e60008201527f6578697374656e7420746f6b656e000000000000000000000000000000000000602082015250565b7f4552433732313a206d696e7420746f20746865207a65726f2061646472657373600082015250565b7f45524337323155524953746f726167653a2055524920717565727920666f722060008201527f6e6f6e6578697374656e7420746f6b656e000000000000000000000000000000602082015250565b7f4552433732313a20617070726f76656420717565727920666f72206e6f6e657860008201527f697374656e7420746f6b656e0000000000000000000000000000000000000000602082015250565b7f4552433732314d657461646174613a2055524920717565727920666f72206e6f60008201527f6e6578697374656e7420746f6b656e0000000000000000000000000000000000602082015250565b7f4552433732313a20617070726f76616c20746f2063757272656e74206f776e6560008201527f7200000000000000000000000000000000000000000000000000000000000000602082015250565b7f4552433732313a207472616e736665722063616c6c6572206973206e6f74206f60008201527f776e6572206e6f7220617070726f766564000000000000000000000000000000602082015250565b7f416363657373436f6e74726f6c3a206163636f756e7420000000000000000000600082015250565b7f4552433732313a2063616c6c6572206973206e6f7420746f6b656e206f776e6560008201527f72206e6f7220617070726f766564000000000000000000000000000000000000602082015250565b7f206973206d697373696e6720726f6c6520000000000000000000000000000000600082015250565b7f416363657373436f6e74726f6c3a2063616e206f6e6c792072656e6f756e636560008201527f20726f6c657320666f722073656c660000000000000000000000000000000000602082015250565b61387d81613006565b811461388857600080fd5b50565b61389481613018565b811461389f57600080fd5b50565b6138ab81613024565b81146138b657600080fd5b50565b6138c28161302e565b81146138cd57600080fd5b50565b6138d98161307a565b81146138e457600080fd5b5056fea2646970667358221220bf3eccf2e3d1f2d44e8ec79d906e9ba7434319bceb51cfe353bb3f692062c3d764736f6c63430008070033",
  "linkReferences": {},
  "deployedLinkReferences": {}
}